{
  "contractName": "IjazahNFT",
  "abi": [
    {
      "inputs": [
        {
          "internalType": "address",
          "name": "initialOwner",
          "type": "address"
        }
      ],
      "stateMutability": "nonpayable",
      "type": "constructor"
    },
    {
      "inputs": [
        {
          "internalType": "address",
          "name": "sender",
          "type": "address"
        },
        {
          "internalType": "uint256",
          "name": "tokenId",
          "type": "uint256"
        },
        {
          "internalType": "address",
          "name": "owner",
          "type": "address"
        }
      ],
      "name": "ERC721IncorrectOwner",
      "type": "error"
    },
    {
      "inputs": [
        {
          "internalType": "address",
          "name": "operator",
          "type": "address"
        },
        {
          "internalType": "uint256",
          "name": "tokenId",
          "type": "uint256"
        }
      ],
      "name": "ERC721InsufficientApproval",
      "type": "error"
    },
    {
      "inputs": [
        {
          "internalType": "address",
          "name": "approver",
          "type": "address"
        }
      ],
      "name": "ERC721InvalidApprover",
      "type": "error"
    },
    {
      "inputs": [
        {
          "internalType": "address",
          "name": "operator",
          "type": "address"
        }
      ],
      "name": "ERC721InvalidOperator",
      "type": "error"
    },
    {
      "inputs": [
        {
          "internalType": "address",
          "name": "owner",
          "type": "address"
        }
      ],
      "name": "ERC721InvalidOwner",
      "type": "error"
    },
    {
      "inputs": [
        {
          "internalType": "address",
          "name": "receiver",
          "type": "address"
        }
      ],
      "name": "ERC721InvalidReceiver",
      "type": "error"
    },
    {
      "inputs": [
        {
          "internalType": "address",
          "name": "sender",
          "type": "address"
        }
      ],
      "name": "ERC721InvalidSender",
      "type": "error"
    },
    {
      "inputs": [
        {
          "internalType": "uint256",
          "name": "tokenId",
          "type": "uint256"
        }
      ],
      "name": "ERC721NonexistentToken",
      "type": "error"
    },
    {
      "inputs": [
        {
          "internalType": "address",
          "name": "owner",
          "type": "address"
        }
      ],
      "name": "OwnableInvalidOwner",
      "type": "error"
    },
    {
      "inputs": [
        {
          "internalType": "address",
          "name": "account",
          "type": "address"
        }
      ],
      "name": "OwnableUnauthorizedAccount",
      "type": "error"
    },
    {
      "anonymous": false,
      "inputs": [
        {
          "indexed": true,
          "internalType": "address",
          "name": "owner",
          "type": "address"
        },
        {
          "indexed": true,
          "internalType": "address",
          "name": "approved",
          "type": "address"
        },
        {
          "indexed": true,
          "internalType": "uint256",
          "name": "tokenId",
          "type": "uint256"
        }
      ],
      "name": "Approval",
      "type": "event"
    },
    {
      "anonymous": false,
      "inputs": [
        {
          "indexed": true,
          "internalType": "address",
          "name": "owner",
          "type": "address"
        },
        {
          "indexed": true,
          "internalType": "address",
          "name": "operator",
          "type": "address"
        },
        {
          "indexed": false,
          "internalType": "bool",
          "name": "approved",
          "type": "bool"
        }
      ],
      "name": "ApprovalForAll",
      "type": "event"
    },
    {
      "anonymous": false,
      "inputs": [
        {
          "indexed": false,
          "internalType": "uint256",
          "name": "_fromTokenId",
          "type": "uint256"
        },
        {
          "indexed": false,
          "internalType": "uint256",
          "name": "_toTokenId",
          "type": "uint256"
        }
      ],
      "name": "BatchMetadataUpdate",
      "type": "event"
    },
    {
      "anonymous": false,
      "inputs": [
        {
          "indexed": true,
          "internalType": "uint256",
          "name": "tokenId",
          "type": "uint256"
        },
        {
          "indexed": true,
          "internalType": "address",
          "name": "recipient",
          "type": "address"
        },
        {
          "indexed": true,
          "internalType": "address",
          "name": "issuer",
          "type": "address"
        },
        {
          "indexed": false,
          "internalType": "bytes32",
          "name": "certificateHash",
          "type": "bytes32"
        },
        {
          "indexed": false,
          "internalType": "string",
          "name": "tokenURI",
          "type": "string"
        }
      ],
      "name": "CertificateMinted",
      "type": "event"
    },
    {
      "anonymous": false,
      "inputs": [
        {
          "indexed": false,
          "internalType": "uint256",
          "name": "_tokenId",
          "type": "uint256"
        }
      ],
      "name": "MetadataUpdate",
      "type": "event"
    },
    {
      "anonymous": false,
      "inputs": [
        {
          "indexed": true,
          "internalType": "address",
          "name": "previousOwner",
          "type": "address"
        },
        {
          "indexed": true,
          "internalType": "address",
          "name": "newOwner",
          "type": "address"
        }
      ],
      "name": "OwnershipTransferred",
      "type": "event"
    },
    {
      "anonymous": false,
      "inputs": [
        {
          "indexed": true,
          "internalType": "address",
          "name": "from",
          "type": "address"
        },
        {
          "indexed": true,
          "internalType": "address",
          "name": "to",
          "type": "address"
        },
        {
          "indexed": true,
          "internalType": "uint256",
          "name": "tokenId",
          "type": "uint256"
        }
      ],
      "name": "Transfer",
      "type": "event"
    },
    {
      "inputs": [
        {
          "internalType": "address",
          "name": "to",
          "type": "address"
        },
        {
          "internalType": "uint256",
          "name": "tokenId",
          "type": "uint256"
        }
      ],
      "name": "approve",
      "outputs": [],
      "stateMutability": "nonpayable",
      "type": "function"
    },
    {
      "inputs": [
        {
          "internalType": "address",
          "name": "owner",
          "type": "address"
        }
      ],
      "name": "balanceOf",
      "outputs": [
        {
          "internalType": "uint256",
          "name": "",
          "type": "uint256"
        }
      ],
      "stateMutability": "view",
      "type": "function",
      "constant": true
    },
    {
      "inputs": [
        {
          "internalType": "uint256",
          "name": "",
          "type": "uint256"
        }
      ],
      "name": "certificateHashes",
      "outputs": [
        {
          "internalType": "bytes32",
          "name": "",
          "type": "bytes32"
        }
      ],
      "stateMutability": "view",
      "type": "function",
      "constant": true
    },
    {
      "inputs": [
        {
          "internalType": "uint256",
          "name": "tokenId",
          "type": "uint256"
        }
      ],
      "name": "getApproved",
      "outputs": [
        {
          "internalType": "address",
          "name": "",
          "type": "address"
        }
      ],
      "stateMutability": "view",
      "type": "function",
      "constant": true
    },
    {
      "inputs": [
        {
          "internalType": "address",
          "name": "owner",
          "type": "address"
        },
        {
          "internalType": "address",
          "name": "operator",
          "type": "address"
        }
      ],
      "name": "isApprovedForAll",
      "outputs": [
        {
          "internalType": "bool",
          "name": "",
          "type": "bool"
        }
      ],
      "stateMutability": "view",
      "type": "function",
      "constant": true
    },
    {
      "inputs": [
        {
          "internalType": "uint256",
          "name": "",
          "type": "uint256"
        }
      ],
      "name": "issueDates",
      "outputs": [
        {
          "internalType": "uint256",
          "name": "",
          "type": "uint256"
        }
      ],
      "stateMutability": "view",
      "type": "function",
      "constant": true
    },
    {
      "inputs": [
        {
          "internalType": "uint256",
          "name": "",
          "type": "uint256"
        }
      ],
      "name": "issuers",
      "outputs": [
        {
          "internalType": "address",
          "name": "",
          "type": "address"
        }
      ],
      "stateMutability": "view",
      "type": "function",
      "constant": true
    },
    {
      "inputs": [],
      "name": "name",
      "outputs": [
        {
          "internalType": "string",
          "name": "",
          "type": "string"
        }
      ],
      "stateMutability": "view",
      "type": "function",
      "constant": true
    },
    {
      "inputs": [],
      "name": "owner",
      "outputs": [
        {
          "internalType": "address",
          "name": "",
          "type": "address"
        }
      ],
      "stateMutability": "view",
      "type": "function",
      "constant": true
    },
    {
      "inputs": [
        {
          "internalType": "uint256",
          "name": "tokenId",
          "type": "uint256"
        }
      ],
      "name": "ownerOf",
      "outputs": [
        {
          "internalType": "address",
          "name": "",
          "type": "address"
        }
      ],
      "stateMutability": "view",
      "type": "function",
      "constant": true
    },
    {
      "inputs": [],
      "name": "renounceOwnership",
      "outputs": [],
      "stateMutability": "nonpayable",
      "type": "function"
    },
    {
      "inputs": [
        {
          "internalType": "address",
          "name": "from",
          "type": "address"
        },
        {
          "internalType": "address",
          "name": "to",
          "type": "address"
        },
        {
          "internalType": "uint256",
          "name": "tokenId",
          "type": "uint256"
        }
      ],
      "name": "safeTransferFrom",
      "outputs": [],
      "stateMutability": "nonpayable",
      "type": "function"
    },
    {
      "inputs": [
        {
          "internalType": "address",
          "name": "from",
          "type": "address"
        },
        {
          "internalType": "address",
          "name": "to",
          "type": "address"
        },
        {
          "internalType": "uint256",
          "name": "tokenId",
          "type": "uint256"
        },
        {
          "internalType": "bytes",
          "name": "data",
          "type": "bytes"
        }
      ],
      "name": "safeTransferFrom",
      "outputs": [],
      "stateMutability": "nonpayable",
      "type": "function"
    },
    {
      "inputs": [
        {
          "internalType": "address",
          "name": "operator",
          "type": "address"
        },
        {
          "internalType": "bool",
          "name": "approved",
          "type": "bool"
        }
      ],
      "name": "setApprovalForAll",
      "outputs": [],
      "stateMutability": "nonpayable",
      "type": "function"
    },
    {
      "inputs": [],
      "name": "symbol",
      "outputs": [
        {
          "internalType": "string",
          "name": "",
          "type": "string"
        }
      ],
      "stateMutability": "view",
      "type": "function",
      "constant": true
    },
    {
      "inputs": [
        {
          "internalType": "address",
          "name": "from",
          "type": "address"
        },
        {
          "internalType": "address",
          "name": "to",
          "type": "address"
        },
        {
          "internalType": "uint256",
          "name": "tokenId",
          "type": "uint256"
        }
      ],
      "name": "transferFrom",
      "outputs": [],
      "stateMutability": "nonpayable",
      "type": "function"
    },
    {
      "inputs": [
        {
          "internalType": "address",
          "name": "newOwner",
          "type": "address"
        }
      ],
      "name": "transferOwnership",
      "outputs": [],
      "stateMutability": "nonpayable",
      "type": "function"
    },
    {
      "inputs": [
        {
          "internalType": "address",
          "name": "recipient",
          "type": "address"
        },
        {
          "internalType": "bytes32",
          "name": "certificateHash",
          "type": "bytes32"
        },
        {
          "internalType": "string",
          "name": "uri",
          "type": "string"
        }
      ],
      "name": "mintCertificate",
      "outputs": [
        {
          "internalType": "uint256",
          "name": "",
          "type": "uint256"
        }
      ],
      "stateMutability": "nonpayable",
      "type": "function"
    },
    {
      "inputs": [
        {
          "internalType": "uint256",
          "name": "tokenId",
          "type": "uint256"
        },
        {
          "internalType": "bytes32",
          "name": "certificateHash",
          "type": "bytes32"
        }
      ],
      "name": "verifyCertificate",
      "outputs": [
        {
          "internalType": "bool",
          "name": "",
          "type": "bool"
        }
      ],
      "stateMutability": "view",
      "type": "function",
      "constant": true
    },
    {
      "inputs": [
        {
          "internalType": "uint256",
          "name": "tokenId",
          "type": "uint256"
        }
      ],
      "name": "getCertificateDetails",
      "outputs": [
        {
          "internalType": "address",
          "name": "owner",
          "type": "address"
        },
        {
          "internalType": "address",
          "name": "issuer",
          "type": "address"
        },
        {
          "internalType": "uint256",
          "name": "issueDate",
          "type": "uint256"
        },
        {
          "internalType": "bytes32",
          "name": "certificateHash",
          "type": "bytes32"
        }
      ],
      "stateMutability": "view",
      "type": "function",
      "constant": true
    },
    {
      "inputs": [
        {
          "internalType": "uint256",
          "name": "tokenId",
          "type": "uint256"
        }
      ],
      "name": "tokenURI",
      "outputs": [
        {
          "internalType": "string",
          "name": "",
          "type": "string"
        }
      ],
      "stateMutability": "view",
      "type": "function",
      "constant": true
    },
    {
      "inputs": [
        {
          "internalType": "bytes4",
          "name": "interfaceId",
          "type": "bytes4"
        }
      ],
      "name": "supportsInterface",
      "outputs": [
        {
          "internalType": "bool",
          "name": "",
          "type": "bool"
        }
      ],
      "stateMutability": "view",
      "type": "function",
      "constant": true
    }
  ],
  "bytecode": "0x60806040523480156200001157600080fd5b5060405162001a1538038062001a15833981016040819052620000349162000136565b8060405180604001604052806012815260200171496a617a616820436572746966696361746560701b815250604051806040016040528060068152602001650929482b482960d31b81525081600090816200009091906200020d565b5060016200009f82826200020d565b5050506001600160a01b038116620000d157604051631e4fbdf760e01b81526000600482015260240160405180910390fd5b620000dc81620000e4565b5050620002d9565b600780546001600160a01b038381166001600160a01b0319831681179093556040519116919082907f8be0079c531659141344cd1fd0a4f28419497f9722a3daafe3b4186f6b6457e090600090a35050565b6000602082840312156200014957600080fd5b81516001600160a01b03811681146200016157600080fd5b9392505050565b634e487b7160e01b600052604160045260246000fd5b600181811c908216806200019357607f821691505b602082108103620001b457634e487b7160e01b600052602260045260246000fd5b50919050565b601f8211156200020857600081815260208120601f850160051c81016020861015620001e35750805b601f850160051c820191505b818110156200020457828155600101620001ef565b5050505b505050565b81516001600160401b0381111562000229576200022962000168565b62000241816200023a84546200017e565b84620001ba565b602080601f831160018114620002795760008415620002605750858301515b600019600386901b1c1916600185901b17855562000204565b600085815260208120601f198616915b82811015620002aa5788860151825594840194600190910190840162000289565b5085821015620002c95787850151600019600388901b60f8161c191681555b5050505050600190811b01905550565b61172c80620002e96000396000f3fe608060405234801561001057600080fd5b50600436106101425760003560e01c806395d89b41116100b8578063c3b451a21161007c578063c3b451a2146102ec578063c87b56dd146102ff578063d4d8d4be14610312578063e985e9c514610325578063ebbbbd6714610338578063f2fde38b1461035857600080fd5b806395d89b4114610260578063a1735e7114610268578063a22cb46514610288578063a901fe5e1461029b578063b88d4fde146102d957600080fd5b806342842e0e1161010a57806342842e0e146101d757806361ec30c4146101ea5780636352211e1461021357806370a0823114610226578063715018a6146102475780638da5cb5b1461024f57600080fd5b806301ffc9a71461014757806306fdde031461016f578063081812fc14610184578063095ea7b3146101af57806323b872dd146101c4575b600080fd5b61015a6101553660046111b3565b61036b565b60405190151581526020015b60405180910390f35b61017761037c565b6040516101669190611220565b610197610192366004611233565b61040e565b6040516001600160a01b039091168152602001610166565b6101c26101bd366004611268565b610437565b005b6101c26101d2366004611292565b610446565b6101c26101e5366004611292565b6104d6565b6101976101f8366004611233565b600a602052600090815260409020546001600160a01b031681565b610197610221366004611233565b6104f6565b6102396102343660046112ce565b610501565b604051908152602001610166565b6101c2610549565b6007546001600160a01b0316610197565b61017761055d565b610239610276366004611233565b60096020526000908152604090205481565b6101c26102963660046112e9565b61056c565b6102ae6102a9366004611233565b610577565b604080516001600160a01b039586168152949093166020850152918301526060820152608001610166565b6101c26102e73660046113b1565b610636565b61015a6102fa36600461142d565b61064e565b61017761030d366004611233565b6106c7565b61023961032036600461144f565b6106d2565b61015a6103333660046114ba565b61078f565b610239610346366004611233565b600b6020526000908152604090205481565b6101c26103663660046112ce565b6107bd565b6000610376826107fb565b92915050565b60606000805461038b906114ed565b80601f01602080910402602001604051908101604052809291908181526020018280546103b7906114ed565b80156104045780601f106103d957610100808354040283529160200191610404565b820191906000526020600020905b8154815290600101906020018083116103e757829003601f168201915b5050505050905090565b600061041982610820565b506000828152600460205260409020546001600160a01b0316610376565b610442828233610859565b5050565b6001600160a01b03821661047557604051633250574960e11b8152600060048201526024015b60405180910390fd5b6000610482838333610866565b9050836001600160a01b0316816001600160a01b0316146104d0576040516364283d7b60e01b81526001600160a01b038086166004830152602482018490528216604482015260640161046c565b50505050565b6104f183838360405180602001604052806000815250610636565b505050565b600061037682610820565b60006001600160a01b03821661052d576040516322718ad960e21b81526000600482015260240161046c565b506001600160a01b031660009081526003602052604090205490565b61055161095f565b61055b600061098c565b565b60606001805461038b906114ed565b6104423383836109de565b60008080808061059c866000908152600260205260409020546001600160a01b031690565b6001600160a01b0316036105f25760405162461bcd60e51b815260206004820152601a60248201527f436572746966696361746520646f6573206e6f74206578697374000000000000604482015260640161046c565b6105fb856104f6565b6000958652600a6020908152604080882054600b835281892054600990935297205491976001600160a01b0390971696909550909350915050565b610641848484610446565b6104d03385858585610a7d565b6000828152600260205260408120546001600160a01b03166106b25760405162461bcd60e51b815260206004820152601a60248201527f436572746966696361746520646f6573206e6f74206578697374000000000000604482015260640161046c565b50600091825260096020526040909120541490565b606061037682610ba8565b60006106dc61095f565b60088054600091826106ed83611527565b9190505590506106fd8582610cb9565b6107078184610cd3565b6000818152600960209081526040808320879055600a825280832080546001600160a01b03191633908117909155600b9092529182902042905590516001600160a01b0387169083907f152f3a70864066aa89a301b2984bc978077e3c267066873279c771af705c12e89061077f908990899061154e565b60405180910390a4949350505050565b6001600160a01b03918216600090815260056020908152604080832093909416825291909152205460ff1690565b6107c561095f565b6001600160a01b0381166107ef57604051631e4fbdf760e01b81526000600482015260240161046c565b6107f88161098c565b50565b60006001600160e01b03198216632483248360e11b1480610376575061037682610d23565b6000818152600260205260408120546001600160a01b03168061037657604051637e27328960e01b81526004810184905260240161046c565b6104f18383836001610d73565b6000828152600260205260408120546001600160a01b039081169083161561089357610893818486610e79565b6001600160a01b038116156108d1576108b0600085600080610d73565b6001600160a01b038116600090815260036020526040902080546000190190555b6001600160a01b03851615610900576001600160a01b0385166000908152600360205260409020805460010190555b60008481526002602052604080822080546001600160a01b0319166001600160a01b0389811691821790925591518793918516917fddf252ad1be2c89b69c2b068fc378daa952ba7f163c4a11628f55a4df523b3ef91a4949350505050565b6007546001600160a01b0316331461055b5760405163118cdaa760e01b815233600482015260240161046c565b600780546001600160a01b038381166001600160a01b0319831681179093556040519116919082907f8be0079c531659141344cd1fd0a4f28419497f9722a3daafe3b4186f6b6457e090600090a35050565b6001600160a01b038216610a1057604051630b61174360e31b81526001600160a01b038316600482015260240161046c565b6001600160a01b03838116600081815260056020908152604080832094871680845294825291829020805460ff191686151590811790915591519182527f17307eab39ab6107e8899845ad3d59bd9653f200f220920489ca2b5937696c31910160405180910390a3505050565b6001600160a01b0383163b15610ba157604051630a85bd0160e11b81526001600160a01b0384169063150b7a0290610abf908890889087908790600401611567565b6020604051808303816000875af1925050508015610afa575060408051601f3d908101601f19168201909252610af7918101906115a4565b60015b610b63573d808015610b28576040519150601f19603f3d011682016040523d82523d6000602084013e610b2d565b606091505b508051600003610b5b57604051633250574960e11b81526001600160a01b038516600482015260240161046c565b805160208201fd5b6001600160e01b03198116630a85bd0160e11b14610b9f57604051633250574960e11b81526001600160a01b038516600482015260240161046c565b505b5050505050565b6060610bb382610820565b5060008281526006602052604081208054610bcd906114ed565b80601f0160208091040260200160405190810160405280929190818152602001828054610bf9906114ed565b8015610c465780601f10610c1b57610100808354040283529160200191610c46565b820191906000526020600020905b815481529060010190602001808311610c2957829003601f168201915b505050505090506000610c6460408051602081019091526000815290565b90508051600003610c76575092915050565b815115610ca8578082604051602001610c909291906115c1565b60405160208183030381529060405292505050919050565b610cb184610edd565b949350505050565b610442828260405180602001604052806000815250610f52565b6000828152600660205260409020610ceb8282611636565b506040518281527ff8e1a15aba9398e019f0b49df1a4fde98ee17ae345cb5f6b5e2c27f5033e8ce79060200160405180910390a15050565b60006001600160e01b031982166380ac58cd60e01b1480610d5457506001600160e01b03198216635b5e139f60e01b145b8061037657506301ffc9a760e01b6001600160e01b0319831614610376565b8080610d8757506001600160a01b03821615155b15610e49576000610d9784610820565b90506001600160a01b03831615801590610dc35750826001600160a01b0316816001600160a01b031614155b8015610dd65750610dd4818461078f565b155b15610dff5760405163a9fbf51f60e01b81526001600160a01b038416600482015260240161046c565b8115610e475783856001600160a01b0316826001600160a01b03167f8c5be1e5ebec7d5bd14f71427d1e84f3dd0314c0f7b2291e5b200ac8c7c3b92560405160405180910390a45b505b5050600090815260046020526040902080546001600160a01b0319166001600160a01b0392909216919091179055565b610e84838383610f6a565b6104f1576001600160a01b038316610eb257604051637e27328960e01b81526004810182905260240161046c565b60405163177e802f60e01b81526001600160a01b03831660048201526024810182905260440161046c565b6060610ee882610820565b506000610f0060408051602081019091526000815290565b90506000815111610f205760405180602001604052806000815250610f4b565b80610f2a84610fcd565b604051602001610f3b9291906115c1565b6040516020818303038152906040525b9392505050565b610f5c8383611060565b6104f1336000858585610a7d565b60006001600160a01b03831615801590610cb15750826001600160a01b0316846001600160a01b03161480610fa45750610fa4848461078f565b80610cb15750506000908152600460205260409020546001600160a01b03908116911614919050565b60606000610fda836110c5565b600101905060008167ffffffffffffffff811115610ffa57610ffa611325565b6040519080825280601f01601f191660200182016040528015611024576020820181803683370190505b5090508181016020015b600019016f181899199a1a9b1b9c1cb0b131b232b360811b600a86061a8153600a850494508461102e57509392505050565b6001600160a01b03821661108a57604051633250574960e11b81526000600482015260240161046c565b600061109883836000610866565b90506001600160a01b038116156104f1576040516339e3563760e11b81526000600482015260240161046c565b60008072184f03e93ff9f4daa797ed6e38ed64bf6a1f0160401b83106111045772184f03e93ff9f4daa797ed6e38ed64bf6a1f0160401b830492506040015b6d04ee2d6d415b85acef81000000008310611130576d04ee2d6d415b85acef8100000000830492506020015b662386f26fc10000831061114e57662386f26fc10000830492506010015b6305f5e1008310611166576305f5e100830492506008015b612710831061117a57612710830492506004015b6064831061118c576064830492506002015b600a83106103765760010192915050565b6001600160e01b0319811681146107f857600080fd5b6000602082840312156111c557600080fd5b8135610f4b8161119d565b60005b838110156111eb5781810151838201526020016111d3565b50506000910152565b6000815180845261120c8160208601602086016111d0565b601f01601f19169290920160200192915050565b602081526000610f4b60208301846111f4565b60006020828403121561124557600080fd5b5035919050565b80356001600160a01b038116811461126357600080fd5b919050565b6000806040838503121561127b57600080fd5b6112848361124c565b946020939093013593505050565b6000806000606084860312156112a757600080fd5b6112b08461124c565b92506112be6020850161124c565b9150604084013590509250925092565b6000602082840312156112e057600080fd5b610f4b8261124c565b600080604083850312156112fc57600080fd5b6113058361124c565b91506020830135801515811461131a57600080fd5b809150509250929050565b634e487b7160e01b600052604160045260246000fd5b600067ffffffffffffffff8084111561135657611356611325565b604051601f8501601f19908116603f0116810190828211818310171561137e5761137e611325565b8160405280935085815286868601111561139757600080fd5b858560208301376000602087830101525050509392505050565b600080600080608085870312156113c757600080fd5b6113d08561124c565b93506113de6020860161124c565b925060408501359150606085013567ffffffffffffffff81111561140157600080fd5b8501601f8101871361141257600080fd5b6114218782356020840161133b565b91505092959194509250565b6000806040838503121561144057600080fd5b50508035926020909101359150565b60008060006060848603121561146457600080fd5b61146d8461124c565b925060208401359150604084013567ffffffffffffffff81111561149057600080fd5b8401601f810186136114a157600080fd5b6114b08682356020840161133b565b9150509250925092565b600080604083850312156114cd57600080fd5b6114d68361124c565b91506114e46020840161124c565b90509250929050565b600181811c9082168061150157607f821691505b60208210810361152157634e487b7160e01b600052602260045260246000fd5b50919050565b60006001820161154757634e487b7160e01b600052601160045260246000fd5b5060010190565b828152604060208201526000610cb160408301846111f4565b6001600160a01b038581168252841660208201526040810183905260806060820181905260009061159a908301846111f4565b9695505050505050565b6000602082840312156115b657600080fd5b8151610f4b8161119d565b600083516115d38184602088016111d0565b8351908301906115e78183602088016111d0565b01949350505050565b601f8211156104f157600081815260208120601f850160051c810160208610156116175750805b601f850160051c820191505b81811015610b9f57828155600101611623565b815167ffffffffffffffff81111561165057611650611325565b6116648161165e84546114ed565b846115f0565b602080601f83116001811461169957600084156116815750858301515b600019600386901b1c1916600185901b178555610b9f565b600085815260208120601f198616915b828110156116c8578886015182559484019460019091019084016116a9565b50858210156116e65787850151600019600388901b60f8161c191681555b5050505050600190811b0190555056fea264697066735822122077404c7ebb527cd4cf2604253d028bf68294315a1f3f01bc8687de1dc1bb601e64736f6c63430008140033",
  "immutableReferences": {},
  "source": "// SPDX-License-Identifier: MIT\r\npragma solidity ^0.8.20;\r\n\r\nimport \"@openzeppelin/contracts/token/ERC721/ERC721.sol\";\r\nimport \"@openzeppelin/contracts/token/ERC721/extensions/ERC721URIStorage.sol\";\r\nimport \"@openzeppelin/contracts/access/Ownable.sol\";\r\n\r\n/**\r\n * @title IjazahNFT\r\n * @dev NFT contract for Ijazah (Certificate) tokens\r\n */\r\ncontract IjazahNFT is ERC721, ERC721URIStorage, Ownable {\r\n    uint256 private _nextTokenId;\r\n\r\n    // Mapping from token ID to certificate data hash\r\n    mapping(uint256 => bytes32) public certificateHashes;\r\n    \r\n    // Mapping from token ID to issuer address\r\n    mapping(uint256 => address) public issuers;\r\n    \r\n    // Mapping from token ID to issue timestamp\r\n    mapping(uint256 => uint256) public issueDates;\r\n    \r\n    // Event emitted when a new certificate is minted\r\n    event CertificateMinted(\r\n        uint256 indexed tokenId,\r\n        address indexed recipient,\r\n        address indexed issuer,\r\n        bytes32 certificateHash,\r\n        string tokenURI\r\n    );\r\n\r\n    constructor(address initialOwner) \r\n        ERC721(\"Ijazah Certificate\", \"IJAZAH\")\r\n        Ownable(initialOwner)\r\n    {}\r\n\r\n    /**\r\n     * @dev Mint a new certificate NFT\r\n     * @param recipient Address to receive the certificate\r\n     * @param certificateHash Hash of the certificate data (for verification)\r\n     * @param uri Metadata URI for the certificate\r\n     * @return newTokenId The ID of the newly minted token\r\n     */\r\n    function mintCertificate(\r\n        address recipient,\r\n        bytes32 certificateHash,\r\n        string memory uri\r\n    ) public onlyOwner returns (uint256) {\r\n        uint256 newTokenId = _nextTokenId++;\r\n\r\n        _safeMint(recipient, newTokenId);\r\n        _setTokenURI(newTokenId, uri);\r\n        \r\n        certificateHashes[newTokenId] = certificateHash;\r\n        issuers[newTokenId] = msg.sender;\r\n        issueDates[newTokenId] = block.timestamp;\r\n\r\n        emit CertificateMinted(\r\n            newTokenId,\r\n            recipient,\r\n            msg.sender,\r\n            certificateHash,\r\n            uri\r\n        );\r\n\r\n        return newTokenId;\r\n    }\r\n\r\n    /**\r\n     * @dev Verify a certificate by comparing its hash\r\n     * @param tokenId The token ID to verify\r\n     * @param certificateHash The hash to compare against\r\n     * @return bool True if the hashes match\r\n     */\r\n    function verifyCertificate(\r\n        uint256 tokenId,\r\n        bytes32 certificateHash\r\n    ) public view returns (bool) {\r\n        require(_ownerOf(tokenId) != address(0), \"Certificate does not exist\");\r\n        return certificateHashes[tokenId] == certificateHash;\r\n    }\r\n\r\n    /**\r\n     * @dev Get certificate details\r\n     * @param tokenId The token ID\r\n     * @return owner Owner address\r\n     * @return issuer Issuer address\r\n     * @return issueDate Timestamp when issued\r\n     * @return certificateHash Hash of certificate data\r\n     */\r\n    function getCertificateDetails(uint256 tokenId)\r\n        public\r\n        view\r\n        returns (\r\n            address owner,\r\n            address issuer,\r\n            uint256 issueDate,\r\n            bytes32 certificateHash\r\n        )\r\n    {\r\n        require(_ownerOf(tokenId) != address(0), \"Certificate does not exist\");\r\n        \r\n        return (\r\n            ownerOf(tokenId),\r\n            issuers[tokenId],\r\n            issueDates[tokenId],\r\n            certificateHashes[tokenId]\r\n        );\r\n    }\r\n\r\n    /**\r\n     * @dev Override required by Solidity\r\n     */\r\n    function tokenURI(uint256 tokenId)\r\n        public\r\n        view\r\n        override(ERC721, ERC721URIStorage)\r\n        returns (string memory)\r\n    {\r\n        return super.tokenURI(tokenId);\r\n    }\r\n\r\n    /**\r\n     * @dev Override required by Solidity\r\n     */\r\n    function supportsInterface(bytes4 interfaceId)\r\n        public\r\n        view\r\n        override(ERC721, ERC721URIStorage)\r\n        returns (bool)\r\n    {\r\n        return super.supportsInterface(interfaceId);\r\n    }\r\n}\r\n",
  "sourcePath": "C:\\Projects\\ijazah-palsu\\contracts\\contracts\\IjazahNFT.sol",
  "compiler": {
    "name": "solc",
    "version": "0.8.20+commit.a1b79de6.Emscripten.clang"
  },
  "schemaVersion": "3.4.16",
  "updatedAt": "2025-12-06T09:09:02.871Z",
  "networkType": "ethereum",
  "devdoc": {
    "details": "NFT contract for Ijazah (Certificate) tokens",
    "errors": {
      "ERC721IncorrectOwner(address,uint256,address)": [
        {
          "details": "Indicates an error related to the ownership over a particular token. Used in transfers.",
          "params": {
            "owner": "Address of the current owner of a token.",
            "sender": "Address whose tokens are being transferred.",
            "tokenId": "Identifier number of a token."
          }
        }
      ],
      "ERC721InsufficientApproval(address,uint256)": [
        {
          "details": "Indicates a failure with the `operator`s approval. Used in transfers.",
          "params": {
            "operator": "Address that may be allowed to operate on tokens without being their owner.",
            "tokenId": "Identifier number of a token."
          }
        }
      ],
      "ERC721InvalidApprover(address)": [
        {
          "details": "Indicates a failure with the `approver` of a token to be approved. Used in approvals.",
          "params": {
            "approver": "Address initiating an approval operation."
          }
        }
      ],
      "ERC721InvalidOperator(address)": [
        {
          "details": "Indicates a failure with the `operator` to be approved. Used in approvals.",
          "params": {
            "operator": "Address that may be allowed to operate on tokens without being their owner."
          }
        }
      ],
      "ERC721InvalidOwner(address)": [
        {
          "details": "Indicates that an address can't be an owner. For example, `address(0)` is a forbidden owner in ERC-20. Used in balance queries.",
          "params": {
            "owner": "Address of the current owner of a token."
          }
        }
      ],
      "ERC721InvalidReceiver(address)": [
        {
          "details": "Indicates a failure with the token `receiver`. Used in transfers.",
          "params": {
            "receiver": "Address to which tokens are being transferred."
          }
        }
      ],
      "ERC721InvalidSender(address)": [
        {
          "details": "Indicates a failure with the token `sender`. Used in transfers.",
          "params": {
            "sender": "Address whose tokens are being transferred."
          }
        }
      ],
      "ERC721NonexistentToken(uint256)": [
        {
          "details": "Indicates a `tokenId` whose `owner` is the zero address.",
          "params": {
            "tokenId": "Identifier number of a token."
          }
        }
      ],
      "OwnableInvalidOwner(address)": [
        {
          "details": "The owner is not a valid owner account. (eg. `address(0)`)"
        }
      ],
      "OwnableUnauthorizedAccount(address)": [
        {
          "details": "The caller account is not authorized to perform an operation."
        }
      ]
    },
    "events": {
      "Approval(address,address,uint256)": {
        "details": "Emitted when `owner` enables `approved` to manage the `tokenId` token."
      },
      "ApprovalForAll(address,address,bool)": {
        "details": "Emitted when `owner` enables or disables (`approved`) `operator` to manage all of its assets."
      },
      "BatchMetadataUpdate(uint256,uint256)": {
        "details": "This event emits when the metadata of a range of tokens is changed. So that the third-party platforms such as NFT market could timely update the images and related attributes of the NFTs."
      },
      "MetadataUpdate(uint256)": {
        "details": "This event emits when the metadata of a token is changed. So that the third-party platforms such as NFT market could timely update the images and related attributes of the NFT."
      },
      "Transfer(address,address,uint256)": {
        "details": "Emitted when `tokenId` token is transferred from `from` to `to`."
      }
    },
    "kind": "dev",
    "methods": {
      "approve(address,uint256)": {
        "details": "Gives permission to `to` to transfer `tokenId` token to another account. The approval is cleared when the token is transferred. Only a single account can be approved at a time, so approving the zero address clears previous approvals. Requirements: - The caller must own the token or be an approved operator. - `tokenId` must exist. Emits an {Approval} event."
      },
      "balanceOf(address)": {
        "details": "Returns the number of tokens in ``owner``'s account."
      },
      "getApproved(uint256)": {
        "details": "Returns the account approved for `tokenId` token. Requirements: - `tokenId` must exist."
      },
      "getCertificateDetails(uint256)": {
        "details": "Get certificate details",
        "params": {
          "tokenId": "The token ID"
        },
        "returns": {
          "certificateHash": "Hash of certificate data",
          "issueDate": "Timestamp when issued",
          "issuer": "Issuer address",
          "owner": "Owner address"
        }
      },
      "isApprovedForAll(address,address)": {
        "details": "Returns if the `operator` is allowed to manage all of the assets of `owner`. See {setApprovalForAll}"
      },
      "mintCertificate(address,bytes32,string)": {
        "details": "Mint a new certificate NFT",
        "params": {
          "certificateHash": "Hash of the certificate data (for verification)",
          "recipient": "Address to receive the certificate",
          "uri": "Metadata URI for the certificate"
        },
        "returns": {
          "_0": "newTokenId The ID of the newly minted token"
        }
      },
      "name()": {
        "details": "Returns the token collection name."
      },
      "owner()": {
        "details": "Returns the address of the current owner."
      },
      "ownerOf(uint256)": {
        "details": "Returns the owner of the `tokenId` token. Requirements: - `tokenId` must exist."
      },
      "renounceOwnership()": {
        "details": "Leaves the contract without owner. It will not be possible to call `onlyOwner` functions. Can only be called by the current owner. NOTE: Renouncing ownership will leave the contract without an owner, thereby disabling any functionality that is only available to the owner."
      },
      "safeTransferFrom(address,address,uint256)": {
        "details": "Safely transfers `tokenId` token from `from` to `to`, checking first that contract recipients are aware of the ERC-721 protocol to prevent tokens from being forever locked. Requirements: - `from` cannot be the zero address. - `to` cannot be the zero address. - `tokenId` token must exist and be owned by `from`. - If the caller is not `from`, it must have been allowed to move this token by either {approve} or   {setApprovalForAll}. - If `to` refers to a smart contract, it must implement {IERC721Receiver-onERC721Received}, which is called upon   a safe transfer. Emits a {Transfer} event."
      },
      "safeTransferFrom(address,address,uint256,bytes)": {
        "details": "Safely transfers `tokenId` token from `from` to `to`. Requirements: - `from` cannot be the zero address. - `to` cannot be the zero address. - `tokenId` token must exist and be owned by `from`. - If the caller is not `from`, it must be approved to move this token by either {approve} or {setApprovalForAll}. - If `to` refers to a smart contract, it must implement {IERC721Receiver-onERC721Received}, which is called upon   a safe transfer. Emits a {Transfer} event."
      },
      "setApprovalForAll(address,bool)": {
        "details": "Approve or remove `operator` as an operator for the caller. Operators can call {transferFrom} or {safeTransferFrom} for any token owned by the caller. Requirements: - The `operator` cannot be the address zero. Emits an {ApprovalForAll} event."
      },
      "supportsInterface(bytes4)": {
        "details": "Override required by Solidity"
      },
      "symbol()": {
        "details": "Returns the token collection symbol."
      },
      "tokenURI(uint256)": {
        "details": "Override required by Solidity"
      },
      "transferFrom(address,address,uint256)": {
        "details": "Transfers `tokenId` token from `from` to `to`. WARNING: Note that the caller is responsible to confirm that the recipient is capable of receiving ERC-721 or else they may be permanently lost. Usage of {safeTransferFrom} prevents loss, though the caller must understand this adds an external call which potentially creates a reentrancy vulnerability. Requirements: - `from` cannot be the zero address. - `to` cannot be the zero address. - `tokenId` token must be owned by `from`. - If the caller is not `from`, it must be approved to move this token by either {approve} or {setApprovalForAll}. Emits a {Transfer} event."
      },
      "transferOwnership(address)": {
        "details": "Transfers ownership of the contract to a new account (`newOwner`). Can only be called by the current owner."
      },
      "verifyCertificate(uint256,bytes32)": {
        "details": "Verify a certificate by comparing its hash",
        "params": {
          "certificateHash": "The hash to compare against",
          "tokenId": "The token ID to verify"
        },
        "returns": {
          "_0": "bool True if the hashes match"
        }
      }
    },
    "title": "IjazahNFT",
    "version": 1
  },
  "userdoc": {
    "kind": "user",
    "methods": {},
    "version": 1
  }
}