{
  "contractName": "IjazahNFT",
  "abi": [
    {
      "inputs": [
        {
          "internalType": "address",
          "name": "initialAdmin",
          "type": "address"
        }
      ],
      "stateMutability": "nonpayable",
      "type": "constructor"
    },
    {
      "inputs": [],
      "name": "AccessControlBadConfirmation",
      "type": "error"
    },
    {
      "inputs": [
        {
          "internalType": "address",
          "name": "account",
          "type": "address"
        },
        {
          "internalType": "bytes32",
          "name": "neededRole",
          "type": "bytes32"
        }
      ],
      "name": "AccessControlUnauthorizedAccount",
      "type": "error"
    },
    {
      "inputs": [
        {
          "internalType": "address",
          "name": "sender",
          "type": "address"
        },
        {
          "internalType": "uint256",
          "name": "tokenId",
          "type": "uint256"
        },
        {
          "internalType": "address",
          "name": "owner",
          "type": "address"
        }
      ],
      "name": "ERC721IncorrectOwner",
      "type": "error"
    },
    {
      "inputs": [
        {
          "internalType": "address",
          "name": "operator",
          "type": "address"
        },
        {
          "internalType": "uint256",
          "name": "tokenId",
          "type": "uint256"
        }
      ],
      "name": "ERC721InsufficientApproval",
      "type": "error"
    },
    {
      "inputs": [
        {
          "internalType": "address",
          "name": "approver",
          "type": "address"
        }
      ],
      "name": "ERC721InvalidApprover",
      "type": "error"
    },
    {
      "inputs": [
        {
          "internalType": "address",
          "name": "operator",
          "type": "address"
        }
      ],
      "name": "ERC721InvalidOperator",
      "type": "error"
    },
    {
      "inputs": [
        {
          "internalType": "address",
          "name": "owner",
          "type": "address"
        }
      ],
      "name": "ERC721InvalidOwner",
      "type": "error"
    },
    {
      "inputs": [
        {
          "internalType": "address",
          "name": "receiver",
          "type": "address"
        }
      ],
      "name": "ERC721InvalidReceiver",
      "type": "error"
    },
    {
      "inputs": [
        {
          "internalType": "address",
          "name": "sender",
          "type": "address"
        }
      ],
      "name": "ERC721InvalidSender",
      "type": "error"
    },
    {
      "inputs": [
        {
          "internalType": "uint256",
          "name": "tokenId",
          "type": "uint256"
        }
      ],
      "name": "ERC721NonexistentToken",
      "type": "error"
    },
    {
      "anonymous": false,
      "inputs": [
        {
          "indexed": true,
          "internalType": "address",
          "name": "owner",
          "type": "address"
        },
        {
          "indexed": true,
          "internalType": "address",
          "name": "approved",
          "type": "address"
        },
        {
          "indexed": true,
          "internalType": "uint256",
          "name": "tokenId",
          "type": "uint256"
        }
      ],
      "name": "Approval",
      "type": "event"
    },
    {
      "anonymous": false,
      "inputs": [
        {
          "indexed": true,
          "internalType": "address",
          "name": "owner",
          "type": "address"
        },
        {
          "indexed": true,
          "internalType": "address",
          "name": "operator",
          "type": "address"
        },
        {
          "indexed": false,
          "internalType": "bool",
          "name": "approved",
          "type": "bool"
        }
      ],
      "name": "ApprovalForAll",
      "type": "event"
    },
    {
      "anonymous": false,
      "inputs": [
        {
          "indexed": false,
          "internalType": "uint256",
          "name": "_fromTokenId",
          "type": "uint256"
        },
        {
          "indexed": false,
          "internalType": "uint256",
          "name": "_toTokenId",
          "type": "uint256"
        }
      ],
      "name": "BatchMetadataUpdate",
      "type": "event"
    },
    {
      "anonymous": false,
      "inputs": [
        {
          "indexed": true,
          "internalType": "uint256",
          "name": "diplomaId",
          "type": "uint256"
        },
        {
          "indexed": true,
          "internalType": "address",
          "name": "recipient",
          "type": "address"
        },
        {
          "indexed": true,
          "internalType": "address",
          "name": "issuer",
          "type": "address"
        },
        {
          "indexed": false,
          "internalType": "bytes32",
          "name": "documentHash",
          "type": "bytes32"
        },
        {
          "indexed": false,
          "internalType": "string",
          "name": "cid",
          "type": "string"
        },
        {
          "indexed": false,
          "internalType": "uint256",
          "name": "timestamp",
          "type": "uint256"
        }
      ],
      "name": "DiplomaIssued",
      "type": "event"
    },
    {
      "anonymous": false,
      "inputs": [
        {
          "indexed": true,
          "internalType": "uint256",
          "name": "diplomaId",
          "type": "uint256"
        },
        {
          "indexed": true,
          "internalType": "address",
          "name": "revoker",
          "type": "address"
        },
        {
          "indexed": false,
          "internalType": "string",
          "name": "reason",
          "type": "string"
        },
        {
          "indexed": false,
          "internalType": "uint256",
          "name": "timestamp",
          "type": "uint256"
        }
      ],
      "name": "DiplomaRevoked",
      "type": "event"
    },
    {
      "anonymous": false,
      "inputs": [
        {
          "indexed": false,
          "internalType": "uint256",
          "name": "_tokenId",
          "type": "uint256"
        }
      ],
      "name": "MetadataUpdate",
      "type": "event"
    },
    {
      "anonymous": false,
      "inputs": [
        {
          "indexed": true,
          "internalType": "bytes32",
          "name": "role",
          "type": "bytes32"
        },
        {
          "indexed": true,
          "internalType": "bytes32",
          "name": "previousAdminRole",
          "type": "bytes32"
        },
        {
          "indexed": true,
          "internalType": "bytes32",
          "name": "newAdminRole",
          "type": "bytes32"
        }
      ],
      "name": "RoleAdminChanged",
      "type": "event"
    },
    {
      "anonymous": false,
      "inputs": [
        {
          "indexed": true,
          "internalType": "bytes32",
          "name": "role",
          "type": "bytes32"
        },
        {
          "indexed": true,
          "internalType": "address",
          "name": "account",
          "type": "address"
        },
        {
          "indexed": true,
          "internalType": "address",
          "name": "sender",
          "type": "address"
        }
      ],
      "name": "RoleGranted",
      "type": "event"
    },
    {
      "anonymous": false,
      "inputs": [
        {
          "indexed": true,
          "internalType": "bytes32",
          "name": "role",
          "type": "bytes32"
        },
        {
          "indexed": true,
          "internalType": "address",
          "name": "account",
          "type": "address"
        },
        {
          "indexed": true,
          "internalType": "address",
          "name": "sender",
          "type": "address"
        }
      ],
      "name": "RoleRevoked",
      "type": "event"
    },
    {
      "anonymous": false,
      "inputs": [
        {
          "indexed": true,
          "internalType": "address",
          "name": "from",
          "type": "address"
        },
        {
          "indexed": true,
          "internalType": "address",
          "name": "to",
          "type": "address"
        },
        {
          "indexed": true,
          "internalType": "uint256",
          "name": "tokenId",
          "type": "uint256"
        }
      ],
      "name": "Transfer",
      "type": "event"
    },
    {
      "inputs": [],
      "name": "DEFAULT_ADMIN_ROLE",
      "outputs": [
        {
          "internalType": "bytes32",
          "name": "",
          "type": "bytes32"
        }
      ],
      "stateMutability": "view",
      "type": "function"
    },
    {
      "inputs": [],
      "name": "ISSUER_ROLE",
      "outputs": [
        {
          "internalType": "bytes32",
          "name": "",
          "type": "bytes32"
        }
      ],
      "stateMutability": "view",
      "type": "function"
    },
    {
      "inputs": [
        {
          "internalType": "address",
          "name": "to",
          "type": "address"
        },
        {
          "internalType": "uint256",
          "name": "tokenId",
          "type": "uint256"
        }
      ],
      "name": "approve",
      "outputs": [],
      "stateMutability": "nonpayable",
      "type": "function"
    },
    {
      "inputs": [
        {
          "internalType": "address",
          "name": "owner",
          "type": "address"
        }
      ],
      "name": "balanceOf",
      "outputs": [
        {
          "internalType": "uint256",
          "name": "",
          "type": "uint256"
        }
      ],
      "stateMutability": "view",
      "type": "function"
    },
    {
      "inputs": [
        {
          "internalType": "uint256",
          "name": "",
          "type": "uint256"
        }
      ],
      "name": "diplomas",
      "outputs": [
        {
          "internalType": "bytes32",
          "name": "documentHash",
          "type": "bytes32"
        },
        {
          "internalType": "string",
          "name": "cid",
          "type": "string"
        },
        {
          "internalType": "address",
          "name": "issuer",
          "type": "address"
        },
        {
          "internalType": "bytes",
          "name": "signature",
          "type": "bytes"
        },
        {
          "internalType": "uint256",
          "name": "timestamp",
          "type": "uint256"
        },
        {
          "internalType": "bool",
          "name": "isActive",
          "type": "bool"
        }
      ],
      "stateMutability": "view",
      "type": "function"
    },
    {
      "inputs": [
        {
          "internalType": "uint256",
          "name": "tokenId",
          "type": "uint256"
        }
      ],
      "name": "getApproved",
      "outputs": [
        {
          "internalType": "address",
          "name": "",
          "type": "address"
        }
      ],
      "stateMutability": "view",
      "type": "function"
    },
    {
      "inputs": [
        {
          "internalType": "bytes32",
          "name": "role",
          "type": "bytes32"
        }
      ],
      "name": "getRoleAdmin",
      "outputs": [
        {
          "internalType": "bytes32",
          "name": "",
          "type": "bytes32"
        }
      ],
      "stateMutability": "view",
      "type": "function"
    },
    {
      "inputs": [
        {
          "internalType": "bytes32",
          "name": "role",
          "type": "bytes32"
        },
        {
          "internalType": "address",
          "name": "account",
          "type": "address"
        }
      ],
      "name": "grantRole",
      "outputs": [],
      "stateMutability": "nonpayable",
      "type": "function"
    },
    {
      "inputs": [
        {
          "internalType": "bytes32",
          "name": "role",
          "type": "bytes32"
        },
        {
          "internalType": "address",
          "name": "account",
          "type": "address"
        }
      ],
      "name": "hasRole",
      "outputs": [
        {
          "internalType": "bool",
          "name": "",
          "type": "bool"
        }
      ],
      "stateMutability": "view",
      "type": "function"
    },
    {
      "inputs": [
        {
          "internalType": "address",
          "name": "owner",
          "type": "address"
        },
        {
          "internalType": "address",
          "name": "operator",
          "type": "address"
        }
      ],
      "name": "isApprovedForAll",
      "outputs": [
        {
          "internalType": "bool",
          "name": "",
          "type": "bool"
        }
      ],
      "stateMutability": "view",
      "type": "function"
    },
    {
      "inputs": [],
      "name": "name",
      "outputs": [
        {
          "internalType": "string",
          "name": "",
          "type": "string"
        }
      ],
      "stateMutability": "view",
      "type": "function"
    },
    {
      "inputs": [
        {
          "internalType": "uint256",
          "name": "tokenId",
          "type": "uint256"
        }
      ],
      "name": "ownerOf",
      "outputs": [
        {
          "internalType": "address",
          "name": "",
          "type": "address"
        }
      ],
      "stateMutability": "view",
      "type": "function"
    },
    {
      "inputs": [
        {
          "internalType": "bytes32",
          "name": "role",
          "type": "bytes32"
        },
        {
          "internalType": "address",
          "name": "callerConfirmation",
          "type": "address"
        }
      ],
      "name": "renounceRole",
      "outputs": [],
      "stateMutability": "nonpayable",
      "type": "function"
    },
    {
      "inputs": [
        {
          "internalType": "uint256",
          "name": "",
          "type": "uint256"
        }
      ],
      "name": "revocationReasons",
      "outputs": [
        {
          "internalType": "string",
          "name": "",
          "type": "string"
        }
      ],
      "stateMutability": "view",
      "type": "function"
    },
    {
      "inputs": [
        {
          "internalType": "bytes32",
          "name": "role",
          "type": "bytes32"
        },
        {
          "internalType": "address",
          "name": "account",
          "type": "address"
        }
      ],
      "name": "revokeRole",
      "outputs": [],
      "stateMutability": "nonpayable",
      "type": "function"
    },
    {
      "inputs": [
        {
          "internalType": "address",
          "name": "from",
          "type": "address"
        },
        {
          "internalType": "address",
          "name": "to",
          "type": "address"
        },
        {
          "internalType": "uint256",
          "name": "tokenId",
          "type": "uint256"
        }
      ],
      "name": "safeTransferFrom",
      "outputs": [],
      "stateMutability": "nonpayable",
      "type": "function"
    },
    {
      "inputs": [
        {
          "internalType": "address",
          "name": "from",
          "type": "address"
        },
        {
          "internalType": "address",
          "name": "to",
          "type": "address"
        },
        {
          "internalType": "uint256",
          "name": "tokenId",
          "type": "uint256"
        },
        {
          "internalType": "bytes",
          "name": "data",
          "type": "bytes"
        }
      ],
      "name": "safeTransferFrom",
      "outputs": [],
      "stateMutability": "nonpayable",
      "type": "function"
    },
    {
      "inputs": [
        {
          "internalType": "address",
          "name": "operator",
          "type": "address"
        },
        {
          "internalType": "bool",
          "name": "approved",
          "type": "bool"
        }
      ],
      "name": "setApprovalForAll",
      "outputs": [],
      "stateMutability": "nonpayable",
      "type": "function"
    },
    {
      "inputs": [],
      "name": "symbol",
      "outputs": [
        {
          "internalType": "string",
          "name": "",
          "type": "string"
        }
      ],
      "stateMutability": "view",
      "type": "function"
    },
    {
      "inputs": [
        {
          "internalType": "address",
          "name": "from",
          "type": "address"
        },
        {
          "internalType": "address",
          "name": "to",
          "type": "address"
        },
        {
          "internalType": "uint256",
          "name": "tokenId",
          "type": "uint256"
        }
      ],
      "name": "transferFrom",
      "outputs": [],
      "stateMutability": "nonpayable",
      "type": "function"
    },
    {
      "inputs": [
        {
          "internalType": "address",
          "name": "_recipient",
          "type": "address"
        },
        {
          "internalType": "bytes32",
          "name": "_documentHash",
          "type": "bytes32"
        },
        {
          "internalType": "string",
          "name": "_cid",
          "type": "string"
        },
        {
          "internalType": "bytes",
          "name": "_signature",
          "type": "bytes"
        }
      ],
      "name": "issueDiploma",
      "outputs": [
        {
          "internalType": "uint256",
          "name": "",
          "type": "uint256"
        }
      ],
      "stateMutability": "nonpayable",
      "type": "function"
    },
    {
      "inputs": [
        {
          "internalType": "uint256",
          "name": "_diplomaId",
          "type": "uint256"
        },
        {
          "internalType": "string",
          "name": "_reason",
          "type": "string"
        }
      ],
      "name": "revokeDiploma",
      "outputs": [],
      "stateMutability": "nonpayable",
      "type": "function"
    },
    {
      "inputs": [
        {
          "internalType": "uint256",
          "name": "_diplomaId",
          "type": "uint256"
        }
      ],
      "name": "verifyDiploma",
      "outputs": [
        {
          "internalType": "bool",
          "name": "isValid",
          "type": "bool"
        },
        {
          "internalType": "bool",
          "name": "isActive",
          "type": "bool"
        }
      ],
      "stateMutability": "view",
      "type": "function"
    },
    {
      "inputs": [
        {
          "internalType": "uint256",
          "name": "_diplomaId",
          "type": "uint256"
        }
      ],
      "name": "getDiplomaDetails",
      "outputs": [
        {
          "internalType": "address",
          "name": "owner",
          "type": "address"
        },
        {
          "components": [
            {
              "internalType": "bytes32",
              "name": "documentHash",
              "type": "bytes32"
            },
            {
              "internalType": "string",
              "name": "cid",
              "type": "string"
            },
            {
              "internalType": "address",
              "name": "issuer",
              "type": "address"
            },
            {
              "internalType": "bytes",
              "name": "signature",
              "type": "bytes"
            },
            {
              "internalType": "uint256",
              "name": "timestamp",
              "type": "uint256"
            },
            {
              "internalType": "bool",
              "name": "isActive",
              "type": "bool"
            }
          ],
          "internalType": "struct IjazahNFT.Diploma",
          "name": "diploma",
          "type": "tuple"
        }
      ],
      "stateMutability": "view",
      "type": "function"
    },
    {
      "inputs": [
        {
          "internalType": "uint256",
          "name": "_diplomaId",
          "type": "uint256"
        },
        {
          "internalType": "bytes32",
          "name": "_documentHash",
          "type": "bytes32"
        }
      ],
      "name": "verifyHash",
      "outputs": [
        {
          "internalType": "bool",
          "name": "",
          "type": "bool"
        }
      ],
      "stateMutability": "view",
      "type": "function"
    },
    {
      "inputs": [],
      "name": "getTotalDiplomas",
      "outputs": [
        {
          "internalType": "uint256",
          "name": "",
          "type": "uint256"
        }
      ],
      "stateMutability": "view",
      "type": "function"
    },
    {
      "inputs": [
        {
          "internalType": "address",
          "name": "_issuer",
          "type": "address"
        }
      ],
      "name": "addIssuer",
      "outputs": [],
      "stateMutability": "nonpayable",
      "type": "function"
    },
    {
      "inputs": [
        {
          "internalType": "address",
          "name": "_issuer",
          "type": "address"
        }
      ],
      "name": "removeIssuer",
      "outputs": [],
      "stateMutability": "nonpayable",
      "type": "function"
    },
    {
      "inputs": [
        {
          "internalType": "address",
          "name": "_address",
          "type": "address"
        }
      ],
      "name": "isIssuer",
      "outputs": [
        {
          "internalType": "bool",
          "name": "",
          "type": "bool"
        }
      ],
      "stateMutability": "view",
      "type": "function"
    },
    {
      "inputs": [
        {
          "internalType": "uint256",
          "name": "tokenId",
          "type": "uint256"
        }
      ],
      "name": "tokenURI",
      "outputs": [
        {
          "internalType": "string",
          "name": "",
          "type": "string"
        }
      ],
      "stateMutability": "view",
      "type": "function"
    },
    {
      "inputs": [
        {
          "internalType": "bytes4",
          "name": "interfaceId",
          "type": "bytes4"
        }
      ],
      "name": "supportsInterface",
      "outputs": [
        {
          "internalType": "bool",
          "name": "",
          "type": "bool"
        }
      ],
      "stateMutability": "view",
      "type": "function"
    }
  ],
  "bytecode": "0x60806040523480156200001157600080fd5b506040516200240538038062002405833981016040819052620000349162000194565b6040518060400160405280600e81526020016d125a985e985a08111a59da5d185b60921b815250604051806040016040528060068152602001650929482b482960d31b81525081600090816200008b91906200026b565b5060016200009a82826200026b565b50620000ac91506000905082620000e1565b50620000d97f114e74f6ea3bd819998f78687bfcb11b140da08e9b7d222fa9c1f1ba1f2aa12282620000e1565b505062000337565b60008281526007602090815260408083206001600160a01b038516845290915281205460ff166200018a5760008381526007602090815260408083206001600160a01b03861684529091529020805460ff19166001179055620001413390565b6001600160a01b0316826001600160a01b0316847f2f8788117e7eff1d82e926ec794901d17c78024a50270940304540a733656f0d60405160405180910390a45060016200018e565b5060005b92915050565b600060208284031215620001a757600080fd5b81516001600160a01b0381168114620001bf57600080fd5b9392505050565b634e487b7160e01b600052604160045260246000fd5b600181811c90821680620001f157607f821691505b6020821081036200021257634e487b7160e01b600052602260045260246000fd5b50919050565b601f8211156200026657600081815260208120601f850160051c81016020861015620002415750805b601f850160051c820191505b8181101562000262578281556001016200024d565b5050505b505050565b81516001600160401b03811115620002875762000287620001c6565b6200029f81620002988454620001dc565b8462000218565b602080601f831160018114620002d75760008415620002be5750858301515b600019600386901b1c1916600185901b17855562000262565b600085815260208120601f198616915b828110156200030857888601518255948401946001909101908401620002e7565b5085821015620003275787850151600019600388901b60f8161c191681555b5050505050600190811b01905550565b6120be80620003476000396000f3fe608060405234801561001057600080fd5b50600436106101e55760003560e01c80636236f3b61161010f578063a217fddf116100a2578063d547741f11610071578063d547741f14610452578063d57a3c0714610465578063e985e9c514610478578063ec06d73b1461048b57600080fd5b8063a217fddf14610411578063a22cb46514610419578063b88d4fde1461042c578063c87b56dd1461043f57600080fd5b806382aefa24116100de57806382aefa24146103ce578063877b9a67146103e357806391d14854146103f657806395d89b411461040957600080fd5b80636236f3b61461038d5780636352211e1461039557806370a08231146103a85780637c554581146103bb57600080fd5b8063248a9ca31161018757806336568abe1161015657806336568abe1461032a57806342842e0e1461033d57806342df8ec71461035057806347bc70931461037a57600080fd5b8063248a9ca3146102ae57806328571feb146102df5780632f2ff15d146102f257806335dfc1c31461030557600080fd5b8063095ea7b3116101c3578063095ea7b31461025257806310359f371461026757806320694db01461028857806323b872dd1461029b57600080fd5b806301ffc9a7146101ea57806306fdde0314610212578063081812fc14610227575b600080fd5b6101fd6101f8366004611976565b61049e565b60405190151581526020015b60405180910390f35b61021a6104af565b60405161020991906119e3565b61023a6102353660046119f6565b610541565b6040516001600160a01b039091168152602001610209565b610265610260366004611a2b565b61056a565b005b61027a6102753660046119f6565b610579565b604051610209929190611a55565b610265610296366004611ad9565b610779565b6102656102a9366004611af4565b6107a1565b6102d16102bc3660046119f6565b60009081526007602052604090206001015490565b604051908152602001610209565b61021a6102ed3660046119f6565b61082c565b610265610300366004611b30565b6108c6565b6103186103133660046119f6565b6108eb565b60405161020996959493929190611b5c565b610265610338366004611b30565b610a43565b61026561034b366004611af4565b610a76565b61036361035e3660046119f6565b610a91565b604080519215158352901515602083015201610209565b610265610388366004611ad9565b610ad5565b6008546102d1565b61023a6103a33660046119f6565b610af8565b6102d16103b6366004611ad9565b610b03565b6102d16103c9366004611c54565b610b4b565b6102d160008051602061206983398151915281565b6101fd6103f1366004611ad9565b610c9b565b6101fd610404366004611b30565b610cb1565b61021a610cdc565b6102d1600081565b610265610427366004611cd2565b610ceb565b61026561043a366004611d0e565b610cf6565b61021a61044d3660046119f6565b610d0e565b610265610460366004611b30565b610d19565b610265610473366004611d6a565b610d3e565b6101fd610486366004611db1565b610e62565b6101fd610499366004611ddb565b610e90565b60006104a982610ed9565b92915050565b6060600080546104be90611dfd565b80601f01602080910402602001604051908101604052809291908181526020018280546104ea90611dfd565b80156105375780601f1061050c57610100808354040283529160200191610537565b820191906000526020600020905b81548152906001019060200180831161051a57829003601f168201915b5050505050905090565b600061054c82610efe565b506000828152600460205260409020546001600160a01b03166104a9565b610575828233610f37565b5050565b6040805160c081018252600080825260606020808401829052838501839052818401919091526080830182905260a0830182905284825260029052918220546001600160a01b03166105e65760405162461bcd60e51b81526004016105dd90611e37565b60405180910390fd5b6105ef83610af8565b60096000858152602001908152602001600020806040518060c00160405290816000820154815260200160018201805461062890611dfd565b80601f016020809104026020016040519081016040528092919081815260200182805461065490611dfd565b80156106a15780601f10610676576101008083540402835291602001916106a1565b820191906000526020600020905b81548152906001019060200180831161068457829003601f168201915b505050918352505060028201546001600160a01b031660208201526003820180546040909201916106d190611dfd565b80601f01602080910402602001604051908101604052809291908181526020018280546106fd90611dfd565b801561074a5780601f1061071f5761010080835404028352916020019161074a565b820191906000526020600020905b81548152906001019060200180831161072d57829003601f168201915b50505091835250506004820154602082015260059091015460ff16151560409091015291959194509092505050565b600061078481610f44565b61079c60008051602061206983398151915283610f51565b505050565b6001600160a01b0382166107cb57604051633250574960e11b8152600060048201526024016105dd565b60006107d8838333610fe5565b9050836001600160a01b0316816001600160a01b031614610826576040516364283d7b60e01b81526001600160a01b03808616600483015260248201849052821660448201526064016105dd565b50505050565b600a602052600090815260409020805461084590611dfd565b80601f016020809104026020016040519081016040528092919081815260200182805461087190611dfd565b80156108be5780601f10610893576101008083540402835291602001916108be565b820191906000526020600020905b8154815290600101906020018083116108a157829003601f168201915b505050505081565b6000828152600760205260409020600101546108e181610f44565b6108268383610f51565b6009602052600090815260409020805460018201805491929161090d90611dfd565b80601f016020809104026020016040519081016040528092919081815260200182805461093990611dfd565b80156109865780601f1061095b57610100808354040283529160200191610986565b820191906000526020600020905b81548152906001019060200180831161096957829003601f168201915b505050600284015460038501805494956001600160a01b039092169491935091506109b090611dfd565b80601f01602080910402602001604051908101604052809291908181526020018280546109dc90611dfd565b8015610a295780601f106109fe57610100808354040283529160200191610a29565b820191906000526020600020905b815481529060010190602001808311610a0c57829003601f168201915b50505050600483015460059093015491929160ff16905086565b6001600160a01b0381163314610a6c5760405163334bd91960e11b815260040160405180910390fd5b61079c82826110de565b61079c83838360405180602001604052806000815250610cf6565b6000818152600260205260408120546001600160a01b03161580159190610acd575060008281526009602052604090206005015460ff16915091565b506000915091565b6000610ae081610f44565b61079c600080516020612069833981519152836110de565b60006104a982610efe565b60006001600160a01b038216610b2f576040516322718ad960e21b8152600060048201526024016105dd565b506001600160a01b031660009081526003602052604090205490565b6000600080516020612069833981519152610b6581610f44565b6008805460009182610b7683611e67565b919050559050610b86878261114b565b610b908186611165565b6040805160c0810182528781526020808201888152338385015260608301889052426080840152600160a0840181905260008681526009909352939091208251815590519192909190820190610be69082611ed4565b5060408201516002820180546001600160a01b0319166001600160a01b0390921691909117905560608201516003820190610c219082611ed4565b506080820151600482015560a0909101516005909101805460ff191691151591909117905560405133906001600160a01b0389169083907f16baf5e8a4cbcaad6f70c9867325584ed588f4e96bdbeaa741a397964141782f90610c89908b908b904290611f94565b60405180910390a49695505050505050565b60006104a9600080516020612069833981519152835b60009182526007602090815260408084206001600160a01b0393909316845291905290205460ff1690565b6060600180546104be90611dfd565b6105753383836111b5565b610d018484846107a1565b610826338585858561124c565b60606104a982611377565b600082815260076020526040902060010154610d3481610f44565b61082683836110de565b600080516020612069833981519152610d5681610f44565b6000838152600260205260409020546001600160a01b0316610d8a5760405162461bcd60e51b81526004016105dd90611e37565b60008381526009602052604090206005015460ff16610deb5760405162461bcd60e51b815260206004820152601760248201527f4469706c6f6d6120616c7265616479207265766f6b656400000000000000000060448201526064016105dd565b6000838152600960209081526040808320600501805460ff19169055600a9091529020610e188382611ed4565b50336001600160a01b0316837f2e0fcfa3787174875549a3b636786e687846a6694381dd255df177006a1f71878442604051610e55929190611fbd565b60405180910390a3505050565b6001600160a01b03918216600090815260056020908152604080832093909416825291909152205460ff1690565b6000828152600260205260408120546001600160a01b0316610ec45760405162461bcd60e51b81526004016105dd90611e37565b50600091825260096020526040909120541490565b60006001600160e01b03198216637965db0b60e01b14806104a957506104a982611488565b6000818152600260205260408120546001600160a01b0316806104a957604051637e27328960e01b8152600481018490526024016105dd565b61079c83838360016114ad565b610f4e81336115b3565b50565b6000610f5d8383610cb1565b610fdd5760008381526007602090815260408083206001600160a01b03861684529091529020805460ff19166001179055610f953390565b6001600160a01b0316826001600160a01b0316847f2f8788117e7eff1d82e926ec794901d17c78024a50270940304540a733656f0d60405160405180910390a45060016104a9565b5060006104a9565b6000828152600260205260408120546001600160a01b0390811690831615611012576110128184866115ec565b6001600160a01b038116156110505761102f6000856000806114ad565b6001600160a01b038116600090815260036020526040902080546000190190555b6001600160a01b0385161561107f576001600160a01b0385166000908152600360205260409020805460010190555b60008481526002602052604080822080546001600160a01b0319166001600160a01b0389811691821790925591518793918516917fddf252ad1be2c89b69c2b068fc378daa952ba7f163c4a11628f55a4df523b3ef91a4949350505050565b60006110ea8383610cb1565b15610fdd5760008381526007602090815260408083206001600160a01b0386168085529252808320805460ff1916905551339286917ff6391f5c32d9c69d2a47ea670b442974b53935d1edc7fd64eb21e047a839171b9190a45060016104a9565b610575828260405180602001604052806000815250611650565b600082815260066020526040902061117d8282611ed4565b506040518281527ff8e1a15aba9398e019f0b49df1a4fde98ee17ae345cb5f6b5e2c27f5033e8ce79060200160405180910390a15050565b6001600160a01b0382166111e757604051630b61174360e31b81526001600160a01b03831660048201526024016105dd565b6001600160a01b03838116600081815260056020908152604080832094871680845294825291829020805460ff191686151590811790915591519182527f17307eab39ab6107e8899845ad3d59bd9653f200f220920489ca2b5937696c319101610e55565b6001600160a01b0383163b1561137057604051630a85bd0160e11b81526001600160a01b0384169063150b7a029061128e908890889087908790600401611fdf565b6020604051808303816000875af19250505080156112c9575060408051601f3d908101601f191682019092526112c69181019061201c565b60015b611332573d8080156112f7576040519150601f19603f3d011682016040523d82523d6000602084013e6112fc565b606091505b50805160000361132a57604051633250574960e11b81526001600160a01b03851660048201526024016105dd565b805160208201fd5b6001600160e01b03198116630a85bd0160e11b1461136e57604051633250574960e11b81526001600160a01b03851660048201526024016105dd565b505b5050505050565b606061138282610efe565b506000828152600660205260408120805461139c90611dfd565b80601f01602080910402602001604051908101604052809291908181526020018280546113c890611dfd565b80156114155780601f106113ea57610100808354040283529160200191611415565b820191906000526020600020905b8154815290600101906020018083116113f857829003601f168201915b50505050509050600061143360408051602081019091526000815290565b90508051600003611445575092915050565b81511561147757808260405160200161145f929190612039565b60405160208183030381529060405292505050919050565b61148084611668565b949350505050565b60006001600160e01b03198216632483248360e11b14806104a957506104a9826116dd565b80806114c157506001600160a01b03821615155b156115835760006114d184610efe565b90506001600160a01b038316158015906114fd5750826001600160a01b0316816001600160a01b031614155b8015611510575061150e8184610e62565b155b156115395760405163a9fbf51f60e01b81526001600160a01b03841660048201526024016105dd565b81156115815783856001600160a01b0316826001600160a01b03167f8c5be1e5ebec7d5bd14f71427d1e84f3dd0314c0f7b2291e5b200ac8c7c3b92560405160405180910390a45b505b5050600090815260046020526040902080546001600160a01b0319166001600160a01b0392909216919091179055565b6115bd8282610cb1565b6105755760405163e2517d3f60e01b81526001600160a01b0382166004820152602481018390526044016105dd565b6115f783838361172d565b61079c576001600160a01b03831661162557604051637e27328960e01b8152600481018290526024016105dd565b60405163177e802f60e01b81526001600160a01b0383166004820152602481018290526044016105dd565b61165a8383611790565b61079c33600085858561124c565b606061167382610efe565b50600061168b60408051602081019091526000815290565b905060008151116116ab57604051806020016040528060008152506116d6565b806116b5846117f5565b6040516020016116c6929190612039565b6040516020818303038152906040525b9392505050565b60006001600160e01b031982166380ac58cd60e01b148061170e57506001600160e01b03198216635b5e139f60e01b145b806104a957506301ffc9a760e01b6001600160e01b03198316146104a9565b60006001600160a01b038316158015906114805750826001600160a01b0316846001600160a01b0316148061176757506117678484610e62565b806114805750506000908152600460205260409020546001600160a01b03908116911614919050565b6001600160a01b0382166117ba57604051633250574960e11b8152600060048201526024016105dd565b60006117c883836000610fe5565b90506001600160a01b0381161561079c576040516339e3563760e11b8152600060048201526024016105dd565b6060600061180283611888565b600101905060008167ffffffffffffffff81111561182257611822611bb1565b6040519080825280601f01601f19166020018201604052801561184c576020820181803683370190505b5090508181016020015b600019016f181899199a1a9b1b9c1cb0b131b232b360811b600a86061a8153600a850494508461185657509392505050565b60008072184f03e93ff9f4daa797ed6e38ed64bf6a1f0160401b83106118c75772184f03e93ff9f4daa797ed6e38ed64bf6a1f0160401b830492506040015b6d04ee2d6d415b85acef810000000083106118f3576d04ee2d6d415b85acef8100000000830492506020015b662386f26fc10000831061191157662386f26fc10000830492506010015b6305f5e1008310611929576305f5e100830492506008015b612710831061193d57612710830492506004015b6064831061194f576064830492506002015b600a83106104a95760010192915050565b6001600160e01b031981168114610f4e57600080fd5b60006020828403121561198857600080fd5b81356116d681611960565b60005b838110156119ae578181015183820152602001611996565b50506000910152565b600081518084526119cf816020860160208601611993565b601f01601f19169290920160200192915050565b6020815260006116d660208301846119b7565b600060208284031215611a0857600080fd5b5035919050565b80356001600160a01b0381168114611a2657600080fd5b919050565b60008060408385031215611a3e57600080fd5b611a4783611a0f565b946020939093013593505050565b600060018060a01b0380851683526040602084015283516040840152602084015160c06060850152611a8b6101008501826119b7565b60408601519092166080850152506060840151838203603f190160a085015290611ab581836119b7565b915050608084015160c084015260a0840151151560e0840152809150509392505050565b600060208284031215611aeb57600080fd5b6116d682611a0f565b600080600060608486031215611b0957600080fd5b611b1284611a0f565b9250611b2060208501611a0f565b9150604084013590509250925092565b60008060408385031215611b4357600080fd5b82359150611b5360208401611a0f565b90509250929050565b86815260c060208201526000611b7560c08301886119b7565b6001600160a01b03871660408401528281036060840152611b9681876119b7565b6080840195909552505090151560a090910152949350505050565b634e487b7160e01b600052604160045260246000fd5b600082601f830112611bd857600080fd5b813567ffffffffffffffff80821115611bf357611bf3611bb1565b604051601f8301601f19908116603f01168101908282118183101715611c1b57611c1b611bb1565b81604052838152866020858801011115611c3457600080fd5b836020870160208301376000602085830101528094505050505092915050565b60008060008060808587031215611c6a57600080fd5b611c7385611a0f565b935060208501359250604085013567ffffffffffffffff80821115611c9757600080fd5b611ca388838901611bc7565b93506060870135915080821115611cb957600080fd5b50611cc687828801611bc7565b91505092959194509250565b60008060408385031215611ce557600080fd5b611cee83611a0f565b915060208301358015158114611d0357600080fd5b809150509250929050565b60008060008060808587031215611d2457600080fd5b611d2d85611a0f565b9350611d3b60208601611a0f565b925060408501359150606085013567ffffffffffffffff811115611d5e57600080fd5b611cc687828801611bc7565b60008060408385031215611d7d57600080fd5b82359150602083013567ffffffffffffffff811115611d9b57600080fd5b611da785828601611bc7565b9150509250929050565b60008060408385031215611dc457600080fd5b611dcd83611a0f565b9150611b5360208401611a0f565b60008060408385031215611dee57600080fd5b50508035926020909101359150565b600181811c90821680611e1157607f821691505b602082108103611e3157634e487b7160e01b600052602260045260246000fd5b50919050565b602080825260169082015275111a5c1b1bdb5848191bd95cc81b9bdd08195e1a5cdd60521b604082015260600190565b600060018201611e8757634e487b7160e01b600052601160045260246000fd5b5060010190565b601f82111561079c57600081815260208120601f850160051c81016020861015611eb55750805b601f850160051c820191505b8181101561136e57828155600101611ec1565b815167ffffffffffffffff811115611eee57611eee611bb1565b611f0281611efc8454611dfd565b84611e8e565b602080601f831160018114611f375760008415611f1f5750858301515b600019600386901b1c1916600185901b17855561136e565b600085815260208120601f198616915b82811015611f6657888601518255948401946001909101908401611f47565b5085821015611f845787850151600019600388901b60f8161c191681555b5050505050600190811b01905550565b838152606060208201526000611fad60608301856119b7565b9050826040830152949350505050565b604081526000611fd060408301856119b7565b90508260208301529392505050565b6001600160a01b0385811682528416602082015260408101839052608060608201819052600090612012908301846119b7565b9695505050505050565b60006020828403121561202e57600080fd5b81516116d681611960565b6000835161204b818460208801611993565b83519083019061205f818360208801611993565b0194935050505056fe114e74f6ea3bd819998f78687bfcb11b140da08e9b7d222fa9c1f1ba1f2aa122a2646970667358221220d6415019d8be08751731062c3b43f6caa979a839b27ec71ecb53a709130589dd64736f6c63430008140033",
  "immutableReferences": {},
  "source": "// SPDX-License-Identifier: MIT\r\npragma solidity ^0.8.20;\r\n\r\nimport \"@openzeppelin/contracts/token/ERC721/ERC721.sol\";\r\nimport \"@openzeppelin/contracts/token/ERC721/extensions/ERC721URIStorage.sol\";\r\nimport \"@openzeppelin/contracts/access/AccessControl.sol\";\r\n\r\n/**\r\n * @title IjazahNFT\r\n * @dev NFT-based Digital Diploma Registry with issuance, revocation, and verification\r\n * @notice Implements PRD specification for blockchain-based diploma system\r\n */\r\ncontract IjazahNFT is ERC721, ERC721URIStorage, AccessControl {\r\n    /// @notice Role identifier for authorized diploma issuers\r\n    bytes32 public constant ISSUER_ROLE = keccak256(\"ISSUER_ROLE\");\r\n\r\n    /// @notice Auto-incrementing token ID counter\r\n    uint256 private _nextTokenId;\r\n\r\n    /// @notice Diploma data structure matching PRD specification\r\n    struct Diploma {\r\n        bytes32 documentHash; // SHA-256 hash of the diploma document\r\n        string cid; // IPFS CID or storage URL\r\n        address issuer; // Address that issued the diploma\r\n        bytes signature; // ECDSA signature from issuer\r\n        uint256 timestamp; // Block timestamp when issued\r\n        bool isActive; // Active status (false = revoked)\r\n    }\r\n\r\n    /// @notice Mapping from token ID to Diploma data\r\n    mapping(uint256 => Diploma) public diplomas;\r\n\r\n    /// @notice Mapping from token ID to revocation reason\r\n    mapping(uint256 => string) public revocationReasons;\r\n\r\n    /// @notice Emitted when a new diploma is issued\r\n    event DiplomaIssued(\r\n        uint256 indexed diplomaId,\r\n        address indexed recipient,\r\n        address indexed issuer,\r\n        bytes32 documentHash,\r\n        string cid,\r\n        uint256 timestamp\r\n    );\r\n\r\n    /// @notice Emitted when a diploma is revoked\r\n    event DiplomaRevoked(\r\n        uint256 indexed diplomaId,\r\n        address indexed revoker,\r\n        string reason,\r\n        uint256 timestamp\r\n    );\r\n\r\n    /**\r\n     * @dev Constructor sets up the contract with initial admin and issuer roles\r\n     * @param initialAdmin Address that will have DEFAULT_ADMIN_ROLE and ISSUER_ROLE\r\n     */\r\n    constructor(address initialAdmin) ERC721(\"Ijazah Digital\", \"IJAZAH\") {\r\n        _grantRole(DEFAULT_ADMIN_ROLE, initialAdmin);\r\n        _grantRole(ISSUER_ROLE, initialAdmin);\r\n    }\r\n\r\n    /**\r\n     * @notice Issue a new diploma as an NFT\r\n     * @dev Only accounts with ISSUER_ROLE can call this function\r\n     * @param _recipient Address to receive the diploma NFT\r\n     * @param _documentHash SHA-256 hash of the diploma document\r\n     * @param _cid IPFS CID or storage URL for encrypted diploma\r\n     * @param _signature ECDSA signature from the issuer\r\n     * @return diplomaId The ID of the newly issued diploma\r\n     */\r\n    function issueDiploma(\r\n        address _recipient,\r\n        bytes32 _documentHash,\r\n        string memory _cid,\r\n        bytes memory _signature\r\n    ) external onlyRole(ISSUER_ROLE) returns (uint256) {\r\n        uint256 diplomaId = _nextTokenId++;\r\n\r\n        // Mint the NFT to recipient\r\n        _safeMint(_recipient, diplomaId);\r\n        _setTokenURI(diplomaId, _cid);\r\n\r\n        // Store diploma data\r\n        diplomas[diplomaId] = Diploma({\r\n            documentHash: _documentHash,\r\n            cid: _cid,\r\n            issuer: msg.sender,\r\n            signature: _signature,\r\n            timestamp: block.timestamp,\r\n            isActive: true\r\n        });\r\n\r\n        emit DiplomaIssued(\r\n            diplomaId,\r\n            _recipient,\r\n            msg.sender,\r\n            _documentHash,\r\n            _cid,\r\n            block.timestamp\r\n        );\r\n\r\n        return diplomaId;\r\n    }\r\n\r\n    /**\r\n     * @notice Revoke a previously issued diploma\r\n     * @dev Only accounts with ISSUER_ROLE can revoke diplomas\r\n     * @param _diplomaId ID of the diploma to revoke\r\n     * @param _reason Reason for revocation (max 500 characters recommended)\r\n     */\r\n    function revokeDiploma(\r\n        uint256 _diplomaId,\r\n        string memory _reason\r\n    ) external onlyRole(ISSUER_ROLE) {\r\n        require(_ownerOf(_diplomaId) != address(0), \"Diploma does not exist\");\r\n        require(diplomas[_diplomaId].isActive, \"Diploma already revoked\");\r\n\r\n        diplomas[_diplomaId].isActive = false;\r\n        revocationReasons[_diplomaId] = _reason;\r\n\r\n        emit DiplomaRevoked(_diplomaId, msg.sender, _reason, block.timestamp);\r\n    }\r\n\r\n    /**\r\n     * @notice Verify a diploma's validity and status\r\n     * @dev Returns whether the diploma exists and is not revoked\r\n     * @param _diplomaId ID of the diploma to verify\r\n     * @return isValid True if the diploma exists\r\n     * @return isActive True if the diploma has not been revoked\r\n     */\r\n    function verifyDiploma(\r\n        uint256 _diplomaId\r\n    ) external view returns (bool isValid, bool isActive) {\r\n        // Check if diploma exists (owner is not zero address)\r\n        isValid = _ownerOf(_diplomaId) != address(0);\r\n\r\n        if (isValid) {\r\n            isActive = diplomas[_diplomaId].isActive;\r\n        } else {\r\n            isActive = false;\r\n        }\r\n\r\n        return (isValid, isActive);\r\n    }\r\n\r\n    /**\r\n     * @notice Get complete diploma details\r\n     * @param _diplomaId ID of the diploma\r\n     * @return owner Current owner of the diploma NFT\r\n     * @return diploma Complete diploma data struct\r\n     */\r\n    function getDiplomaDetails(\r\n        uint256 _diplomaId\r\n    ) external view returns (address owner, Diploma memory diploma) {\r\n        require(_ownerOf(_diplomaId) != address(0), \"Diploma does not exist\");\r\n        return (ownerOf(_diplomaId), diplomas[_diplomaId]);\r\n    }\r\n\r\n    /**\r\n     * @notice Verify diploma hash matches stored hash\r\n     * @param _diplomaId ID of the diploma\r\n     * @param _documentHash Hash to compare against stored hash\r\n     * @return True if hashes match\r\n     */\r\n    function verifyHash(\r\n        uint256 _diplomaId,\r\n        bytes32 _documentHash\r\n    ) external view returns (bool) {\r\n        require(_ownerOf(_diplomaId) != address(0), \"Diploma does not exist\");\r\n        return diplomas[_diplomaId].documentHash == _documentHash;\r\n    }\r\n\r\n    /**\r\n     * @notice Get the total number of diplomas issued\r\n     * @return Total count of diplomas (includes revoked)\r\n     */\r\n    function getTotalDiplomas() external view returns (uint256) {\r\n        return _nextTokenId;\r\n    }\r\n\r\n    /**\r\n     * @notice Add a new issuer\r\n     * @dev Only DEFAULT_ADMIN_ROLE can add issuers\r\n     * @param _issuer Address to grant ISSUER_ROLE\r\n     */\r\n    function addIssuer(address _issuer) external onlyRole(DEFAULT_ADMIN_ROLE) {\r\n        _grantRole(ISSUER_ROLE, _issuer);\r\n    }\r\n\r\n    /**\r\n     * @notice Remove an issuer\r\n     * @dev Only DEFAULT_ADMIN_ROLE can remove issuers\r\n     * @param _issuer Address to revoke ISSUER_ROLE from\r\n     */\r\n    function removeIssuer(\r\n        address _issuer\r\n    ) external onlyRole(DEFAULT_ADMIN_ROLE) {\r\n        _revokeRole(ISSUER_ROLE, _issuer);\r\n    }\r\n\r\n    /**\r\n     * @notice Check if an address is an authorized issuer\r\n     * @param _address Address to check\r\n     * @return True if address has ISSUER_ROLE\r\n     */\r\n    function isIssuer(address _address) external view returns (bool) {\r\n        return hasRole(ISSUER_ROLE, _address);\r\n    }\r\n\r\n    // ============ Required Overrides ============\r\n\r\n    function tokenURI(\r\n        uint256 tokenId\r\n    ) public view override(ERC721, ERC721URIStorage) returns (string memory) {\r\n        return super.tokenURI(tokenId);\r\n    }\r\n\r\n    function supportsInterface(\r\n        bytes4 interfaceId\r\n    )\r\n        public\r\n        view\r\n        override(ERC721, ERC721URIStorage, AccessControl)\r\n        returns (bool)\r\n    {\r\n        return super.supportsInterface(interfaceId);\r\n    }\r\n}\r\n",
  "sourcePath": "C:\\Users\\MSI GF63\\kode\\Kuliah\\kripto\\Tubes 2\\contracts\\contracts\\IjazahNFT.sol",
  "compiler": {
    "name": "solc",
    "version": "0.8.20+commit.a1b79de6.Emscripten.clang"
  },
  "schemaVersion": "3.4.16",
  "updatedAt": "2025-12-25T18:16:41.038Z",
  "devdoc": {
    "details": "NFT-based Digital Diploma Registry with issuance, revocation, and verification",
    "errors": {
      "AccessControlBadConfirmation()": [
        {
          "details": "The caller of a function is not the expected one. NOTE: Don't confuse with {AccessControlUnauthorizedAccount}."
        }
      ],
      "AccessControlUnauthorizedAccount(address,bytes32)": [
        {
          "details": "The `account` is missing a role."
        }
      ],
      "ERC721IncorrectOwner(address,uint256,address)": [
        {
          "details": "Indicates an error related to the ownership over a particular token. Used in transfers.",
          "params": {
            "owner": "Address of the current owner of a token.",
            "sender": "Address whose tokens are being transferred.",
            "tokenId": "Identifier number of a token."
          }
        }
      ],
      "ERC721InsufficientApproval(address,uint256)": [
        {
          "details": "Indicates a failure with the `operator`s approval. Used in transfers.",
          "params": {
            "operator": "Address that may be allowed to operate on tokens without being their owner.",
            "tokenId": "Identifier number of a token."
          }
        }
      ],
      "ERC721InvalidApprover(address)": [
        {
          "details": "Indicates a failure with the `approver` of a token to be approved. Used in approvals.",
          "params": {
            "approver": "Address initiating an approval operation."
          }
        }
      ],
      "ERC721InvalidOperator(address)": [
        {
          "details": "Indicates a failure with the `operator` to be approved. Used in approvals.",
          "params": {
            "operator": "Address that may be allowed to operate on tokens without being their owner."
          }
        }
      ],
      "ERC721InvalidOwner(address)": [
        {
          "details": "Indicates that an address can't be an owner. For example, `address(0)` is a forbidden owner in ERC-20. Used in balance queries.",
          "params": {
            "owner": "Address of the current owner of a token."
          }
        }
      ],
      "ERC721InvalidReceiver(address)": [
        {
          "details": "Indicates a failure with the token `receiver`. Used in transfers.",
          "params": {
            "receiver": "Address to which tokens are being transferred."
          }
        }
      ],
      "ERC721InvalidSender(address)": [
        {
          "details": "Indicates a failure with the token `sender`. Used in transfers.",
          "params": {
            "sender": "Address whose tokens are being transferred."
          }
        }
      ],
      "ERC721NonexistentToken(uint256)": [
        {
          "details": "Indicates a `tokenId` whose `owner` is the zero address.",
          "params": {
            "tokenId": "Identifier number of a token."
          }
        }
      ]
    },
    "events": {
      "Approval(address,address,uint256)": {
        "details": "Emitted when `owner` enables `approved` to manage the `tokenId` token."
      },
      "ApprovalForAll(address,address,bool)": {
        "details": "Emitted when `owner` enables or disables (`approved`) `operator` to manage all of its assets."
      },
      "BatchMetadataUpdate(uint256,uint256)": {
        "details": "This event emits when the metadata of a range of tokens is changed. So that the third-party platforms such as NFT market could timely update the images and related attributes of the NFTs."
      },
      "MetadataUpdate(uint256)": {
        "details": "This event emits when the metadata of a token is changed. So that the third-party platforms such as NFT market could timely update the images and related attributes of the NFT."
      },
      "RoleAdminChanged(bytes32,bytes32,bytes32)": {
        "details": "Emitted when `newAdminRole` is set as ``role``'s admin role, replacing `previousAdminRole` `DEFAULT_ADMIN_ROLE` is the starting admin for all roles, despite {RoleAdminChanged} not being emitted to signal this."
      },
      "RoleGranted(bytes32,address,address)": {
        "details": "Emitted when `account` is granted `role`. `sender` is the account that originated the contract call. This account bears the admin role (for the granted role). Expected in cases where the role was granted using the internal {AccessControl-_grantRole}."
      },
      "RoleRevoked(bytes32,address,address)": {
        "details": "Emitted when `account` is revoked `role`. `sender` is the account that originated the contract call:   - if using `revokeRole`, it is the admin role bearer   - if using `renounceRole`, it is the role bearer (i.e. `account`)"
      },
      "Transfer(address,address,uint256)": {
        "details": "Emitted when `tokenId` token is transferred from `from` to `to`."
      }
    },
    "kind": "dev",
    "methods": {
      "addIssuer(address)": {
        "details": "Only DEFAULT_ADMIN_ROLE can add issuers",
        "params": {
          "_issuer": "Address to grant ISSUER_ROLE"
        }
      },
      "approve(address,uint256)": {
        "details": "Gives permission to `to` to transfer `tokenId` token to another account. The approval is cleared when the token is transferred. Only a single account can be approved at a time, so approving the zero address clears previous approvals. Requirements: - The caller must own the token or be an approved operator. - `tokenId` must exist. Emits an {Approval} event."
      },
      "balanceOf(address)": {
        "details": "Returns the number of tokens in ``owner``'s account."
      },
      "constructor": {
        "details": "Constructor sets up the contract with initial admin and issuer roles",
        "params": {
          "initialAdmin": "Address that will have DEFAULT_ADMIN_ROLE and ISSUER_ROLE"
        }
      },
      "getApproved(uint256)": {
        "details": "Returns the account approved for `tokenId` token. Requirements: - `tokenId` must exist."
      },
      "getDiplomaDetails(uint256)": {
        "params": {
          "_diplomaId": "ID of the diploma"
        },
        "returns": {
          "diploma": "Complete diploma data struct",
          "owner": "Current owner of the diploma NFT"
        }
      },
      "getRoleAdmin(bytes32)": {
        "details": "Returns the admin role that controls `role`. See {grantRole} and {revokeRole}. To change a role's admin, use {_setRoleAdmin}."
      },
      "getTotalDiplomas()": {
        "returns": {
          "_0": "Total count of diplomas (includes revoked)"
        }
      },
      "grantRole(bytes32,address)": {
        "details": "Grants `role` to `account`. If `account` had not been already granted `role`, emits a {RoleGranted} event. Requirements: - the caller must have ``role``'s admin role. May emit a {RoleGranted} event."
      },
      "hasRole(bytes32,address)": {
        "details": "Returns `true` if `account` has been granted `role`."
      },
      "isApprovedForAll(address,address)": {
        "details": "Returns if the `operator` is allowed to manage all of the assets of `owner`. See {setApprovalForAll}"
      },
      "isIssuer(address)": {
        "params": {
          "_address": "Address to check"
        },
        "returns": {
          "_0": "True if address has ISSUER_ROLE"
        }
      },
      "issueDiploma(address,bytes32,string,bytes)": {
        "details": "Only accounts with ISSUER_ROLE can call this function",
        "params": {
          "_cid": "IPFS CID or storage URL for encrypted diploma",
          "_documentHash": "SHA-256 hash of the diploma document",
          "_recipient": "Address to receive the diploma NFT",
          "_signature": "ECDSA signature from the issuer"
        },
        "returns": {
          "_0": "diplomaId The ID of the newly issued diploma"
        }
      },
      "name()": {
        "details": "Returns the token collection name."
      },
      "ownerOf(uint256)": {
        "details": "Returns the owner of the `tokenId` token. Requirements: - `tokenId` must exist."
      },
      "removeIssuer(address)": {
        "details": "Only DEFAULT_ADMIN_ROLE can remove issuers",
        "params": {
          "_issuer": "Address to revoke ISSUER_ROLE from"
        }
      },
      "renounceRole(bytes32,address)": {
        "details": "Revokes `role` from the calling account. Roles are often managed via {grantRole} and {revokeRole}: this function's purpose is to provide a mechanism for accounts to lose their privileges if they are compromised (such as when a trusted device is misplaced). If the calling account had been revoked `role`, emits a {RoleRevoked} event. Requirements: - the caller must be `callerConfirmation`. May emit a {RoleRevoked} event."
      },
      "revokeDiploma(uint256,string)": {
        "details": "Only accounts with ISSUER_ROLE can revoke diplomas",
        "params": {
          "_diplomaId": "ID of the diploma to revoke",
          "_reason": "Reason for revocation (max 500 characters recommended)"
        }
      },
      "revokeRole(bytes32,address)": {
        "details": "Revokes `role` from `account`. If `account` had been granted `role`, emits a {RoleRevoked} event. Requirements: - the caller must have ``role``'s admin role. May emit a {RoleRevoked} event."
      },
      "safeTransferFrom(address,address,uint256)": {
        "details": "Safely transfers `tokenId` token from `from` to `to`, checking first that contract recipients are aware of the ERC-721 protocol to prevent tokens from being forever locked. Requirements: - `from` cannot be the zero address. - `to` cannot be the zero address. - `tokenId` token must exist and be owned by `from`. - If the caller is not `from`, it must have been allowed to move this token by either {approve} or   {setApprovalForAll}. - If `to` refers to a smart contract, it must implement {IERC721Receiver-onERC721Received}, which is called upon   a safe transfer. Emits a {Transfer} event."
      },
      "safeTransferFrom(address,address,uint256,bytes)": {
        "details": "Safely transfers `tokenId` token from `from` to `to`. Requirements: - `from` cannot be the zero address. - `to` cannot be the zero address. - `tokenId` token must exist and be owned by `from`. - If the caller is not `from`, it must be approved to move this token by either {approve} or {setApprovalForAll}. - If `to` refers to a smart contract, it must implement {IERC721Receiver-onERC721Received}, which is called upon   a safe transfer. Emits a {Transfer} event."
      },
      "setApprovalForAll(address,bool)": {
        "details": "Approve or remove `operator` as an operator for the caller. Operators can call {transferFrom} or {safeTransferFrom} for any token owned by the caller. Requirements: - The `operator` cannot be the address zero. Emits an {ApprovalForAll} event."
      },
      "symbol()": {
        "details": "Returns the token collection symbol."
      },
      "transferFrom(address,address,uint256)": {
        "details": "Transfers `tokenId` token from `from` to `to`. WARNING: Note that the caller is responsible to confirm that the recipient is capable of receiving ERC-721 or else they may be permanently lost. Usage of {safeTransferFrom} prevents loss, though the caller must understand this adds an external call which potentially creates a reentrancy vulnerability. Requirements: - `from` cannot be the zero address. - `to` cannot be the zero address. - `tokenId` token must be owned by `from`. - If the caller is not `from`, it must be approved to move this token by either {approve} or {setApprovalForAll}. Emits a {Transfer} event."
      },
      "verifyDiploma(uint256)": {
        "details": "Returns whether the diploma exists and is not revoked",
        "params": {
          "_diplomaId": "ID of the diploma to verify"
        },
        "returns": {
          "isActive": "True if the diploma has not been revoked",
          "isValid": "True if the diploma exists"
        }
      },
      "verifyHash(uint256,bytes32)": {
        "params": {
          "_diplomaId": "ID of the diploma",
          "_documentHash": "Hash to compare against stored hash"
        },
        "returns": {
          "_0": "True if hashes match"
        }
      }
    },
    "title": "IjazahNFT",
    "version": 1
  },
  "userdoc": {
    "events": {
      "DiplomaIssued(uint256,address,address,bytes32,string,uint256)": {
        "notice": "Emitted when a new diploma is issued"
      },
      "DiplomaRevoked(uint256,address,string,uint256)": {
        "notice": "Emitted when a diploma is revoked"
      }
    },
    "kind": "user",
    "methods": {
      "ISSUER_ROLE()": {
        "notice": "Role identifier for authorized diploma issuers"
      },
      "addIssuer(address)": {
        "notice": "Add a new issuer"
      },
      "diplomas(uint256)": {
        "notice": "Mapping from token ID to Diploma data"
      },
      "getDiplomaDetails(uint256)": {
        "notice": "Get complete diploma details"
      },
      "getTotalDiplomas()": {
        "notice": "Get the total number of diplomas issued"
      },
      "isIssuer(address)": {
        "notice": "Check if an address is an authorized issuer"
      },
      "issueDiploma(address,bytes32,string,bytes)": {
        "notice": "Issue a new diploma as an NFT"
      },
      "removeIssuer(address)": {
        "notice": "Remove an issuer"
      },
      "revocationReasons(uint256)": {
        "notice": "Mapping from token ID to revocation reason"
      },
      "revokeDiploma(uint256,string)": {
        "notice": "Revoke a previously issued diploma"
      },
      "verifyDiploma(uint256)": {
        "notice": "Verify a diploma's validity and status"
      },
      "verifyHash(uint256,bytes32)": {
        "notice": "Verify diploma hash matches stored hash"
      }
    },
    "notice": "Implements PRD specification for blockchain-based diploma system",
    "version": 1
  }
}