{
  "_format": "hh-sol-artifact-1",
  "contractName": "IjazahNFT",
  "sourceName": "contracts/IjazahNFT.sol",
  "abi": [
    {
      "inputs": [
        {
          "internalType": "address",
          "name": "initialAdmin",
          "type": "address"
        }
      ],
      "stateMutability": "nonpayable",
      "type": "constructor"
    },
    {
      "inputs": [],
      "name": "AccessControlBadConfirmation",
      "type": "error"
    },
    {
      "inputs": [
        {
          "internalType": "address",
          "name": "account",
          "type": "address"
        },
        {
          "internalType": "bytes32",
          "name": "neededRole",
          "type": "bytes32"
        }
      ],
      "name": "AccessControlUnauthorizedAccount",
      "type": "error"
    },
    {
      "inputs": [
        {
          "internalType": "address",
          "name": "sender",
          "type": "address"
        },
        {
          "internalType": "uint256",
          "name": "tokenId",
          "type": "uint256"
        },
        {
          "internalType": "address",
          "name": "owner",
          "type": "address"
        }
      ],
      "name": "ERC721IncorrectOwner",
      "type": "error"
    },
    {
      "inputs": [
        {
          "internalType": "address",
          "name": "operator",
          "type": "address"
        },
        {
          "internalType": "uint256",
          "name": "tokenId",
          "type": "uint256"
        }
      ],
      "name": "ERC721InsufficientApproval",
      "type": "error"
    },
    {
      "inputs": [
        {
          "internalType": "address",
          "name": "approver",
          "type": "address"
        }
      ],
      "name": "ERC721InvalidApprover",
      "type": "error"
    },
    {
      "inputs": [
        {
          "internalType": "address",
          "name": "operator",
          "type": "address"
        }
      ],
      "name": "ERC721InvalidOperator",
      "type": "error"
    },
    {
      "inputs": [
        {
          "internalType": "address",
          "name": "owner",
          "type": "address"
        }
      ],
      "name": "ERC721InvalidOwner",
      "type": "error"
    },
    {
      "inputs": [
        {
          "internalType": "address",
          "name": "receiver",
          "type": "address"
        }
      ],
      "name": "ERC721InvalidReceiver",
      "type": "error"
    },
    {
      "inputs": [
        {
          "internalType": "address",
          "name": "sender",
          "type": "address"
        }
      ],
      "name": "ERC721InvalidSender",
      "type": "error"
    },
    {
      "inputs": [
        {
          "internalType": "uint256",
          "name": "tokenId",
          "type": "uint256"
        }
      ],
      "name": "ERC721NonexistentToken",
      "type": "error"
    },
    {
      "anonymous": false,
      "inputs": [
        {
          "indexed": true,
          "internalType": "address",
          "name": "owner",
          "type": "address"
        },
        {
          "indexed": true,
          "internalType": "address",
          "name": "approved",
          "type": "address"
        },
        {
          "indexed": true,
          "internalType": "uint256",
          "name": "tokenId",
          "type": "uint256"
        }
      ],
      "name": "Approval",
      "type": "event"
    },
    {
      "anonymous": false,
      "inputs": [
        {
          "indexed": true,
          "internalType": "address",
          "name": "owner",
          "type": "address"
        },
        {
          "indexed": true,
          "internalType": "address",
          "name": "operator",
          "type": "address"
        },
        {
          "indexed": false,
          "internalType": "bool",
          "name": "approved",
          "type": "bool"
        }
      ],
      "name": "ApprovalForAll",
      "type": "event"
    },
    {
      "anonymous": false,
      "inputs": [
        {
          "indexed": false,
          "internalType": "uint256",
          "name": "_fromTokenId",
          "type": "uint256"
        },
        {
          "indexed": false,
          "internalType": "uint256",
          "name": "_toTokenId",
          "type": "uint256"
        }
      ],
      "name": "BatchMetadataUpdate",
      "type": "event"
    },
    {
      "anonymous": false,
      "inputs": [
        {
          "indexed": true,
          "internalType": "uint256",
          "name": "diplomaId",
          "type": "uint256"
        },
        {
          "indexed": true,
          "internalType": "address",
          "name": "recipient",
          "type": "address"
        },
        {
          "indexed": true,
          "internalType": "address",
          "name": "issuer",
          "type": "address"
        },
        {
          "indexed": false,
          "internalType": "bytes32",
          "name": "documentHash",
          "type": "bytes32"
        },
        {
          "indexed": false,
          "internalType": "string",
          "name": "cid",
          "type": "string"
        },
        {
          "indexed": false,
          "internalType": "string",
          "name": "studentName",
          "type": "string"
        },
        {
          "indexed": false,
          "internalType": "string",
          "name": "nim",
          "type": "string"
        },
        {
          "indexed": false,
          "internalType": "uint256",
          "name": "timestamp",
          "type": "uint256"
        }
      ],
      "name": "DiplomaIssued",
      "type": "event"
    },
    {
      "anonymous": false,
      "inputs": [
        {
          "indexed": true,
          "internalType": "uint256",
          "name": "diplomaId",
          "type": "uint256"
        },
        {
          "indexed": true,
          "internalType": "address",
          "name": "revoker",
          "type": "address"
        },
        {
          "indexed": false,
          "internalType": "string",
          "name": "reason",
          "type": "string"
        },
        {
          "indexed": false,
          "internalType": "uint256",
          "name": "timestamp",
          "type": "uint256"
        }
      ],
      "name": "DiplomaRevoked",
      "type": "event"
    },
    {
      "anonymous": false,
      "inputs": [
        {
          "indexed": false,
          "internalType": "uint256",
          "name": "_tokenId",
          "type": "uint256"
        }
      ],
      "name": "MetadataUpdate",
      "type": "event"
    },
    {
      "anonymous": false,
      "inputs": [
        {
          "indexed": true,
          "internalType": "bytes32",
          "name": "role",
          "type": "bytes32"
        },
        {
          "indexed": true,
          "internalType": "bytes32",
          "name": "previousAdminRole",
          "type": "bytes32"
        },
        {
          "indexed": true,
          "internalType": "bytes32",
          "name": "newAdminRole",
          "type": "bytes32"
        }
      ],
      "name": "RoleAdminChanged",
      "type": "event"
    },
    {
      "anonymous": false,
      "inputs": [
        {
          "indexed": true,
          "internalType": "bytes32",
          "name": "role",
          "type": "bytes32"
        },
        {
          "indexed": true,
          "internalType": "address",
          "name": "account",
          "type": "address"
        },
        {
          "indexed": true,
          "internalType": "address",
          "name": "sender",
          "type": "address"
        }
      ],
      "name": "RoleGranted",
      "type": "event"
    },
    {
      "anonymous": false,
      "inputs": [
        {
          "indexed": true,
          "internalType": "bytes32",
          "name": "role",
          "type": "bytes32"
        },
        {
          "indexed": true,
          "internalType": "address",
          "name": "account",
          "type": "address"
        },
        {
          "indexed": true,
          "internalType": "address",
          "name": "sender",
          "type": "address"
        }
      ],
      "name": "RoleRevoked",
      "type": "event"
    },
    {
      "anonymous": false,
      "inputs": [
        {
          "indexed": true,
          "internalType": "address",
          "name": "from",
          "type": "address"
        },
        {
          "indexed": true,
          "internalType": "address",
          "name": "to",
          "type": "address"
        },
        {
          "indexed": true,
          "internalType": "uint256",
          "name": "tokenId",
          "type": "uint256"
        }
      ],
      "name": "Transfer",
      "type": "event"
    },
    {
      "inputs": [],
      "name": "DEFAULT_ADMIN_ROLE",
      "outputs": [
        {
          "internalType": "bytes32",
          "name": "",
          "type": "bytes32"
        }
      ],
      "stateMutability": "view",
      "type": "function"
    },
    {
      "inputs": [],
      "name": "ISSUER_ROLE",
      "outputs": [
        {
          "internalType": "bytes32",
          "name": "",
          "type": "bytes32"
        }
      ],
      "stateMutability": "view",
      "type": "function"
    },
    {
      "inputs": [
        {
          "internalType": "address",
          "name": "_issuer",
          "type": "address"
        }
      ],
      "name": "addIssuer",
      "outputs": [],
      "stateMutability": "nonpayable",
      "type": "function"
    },
    {
      "inputs": [
        {
          "internalType": "address",
          "name": "to",
          "type": "address"
        },
        {
          "internalType": "uint256",
          "name": "tokenId",
          "type": "uint256"
        }
      ],
      "name": "approve",
      "outputs": [],
      "stateMutability": "nonpayable",
      "type": "function"
    },
    {
      "inputs": [
        {
          "internalType": "address",
          "name": "owner",
          "type": "address"
        }
      ],
      "name": "balanceOf",
      "outputs": [
        {
          "internalType": "uint256",
          "name": "",
          "type": "uint256"
        }
      ],
      "stateMutability": "view",
      "type": "function"
    },
    {
      "inputs": [
        {
          "internalType": "uint256",
          "name": "",
          "type": "uint256"
        }
      ],
      "name": "diplomaMetadata",
      "outputs": [
        {
          "internalType": "string",
          "name": "studentName",
          "type": "string"
        },
        {
          "internalType": "string",
          "name": "nim",
          "type": "string"
        }
      ],
      "stateMutability": "view",
      "type": "function"
    },
    {
      "inputs": [
        {
          "internalType": "uint256",
          "name": "",
          "type": "uint256"
        }
      ],
      "name": "diplomas",
      "outputs": [
        {
          "internalType": "bytes32",
          "name": "documentHash",
          "type": "bytes32"
        },
        {
          "internalType": "string",
          "name": "cid",
          "type": "string"
        },
        {
          "internalType": "address",
          "name": "issuer",
          "type": "address"
        },
        {
          "internalType": "bytes",
          "name": "signature",
          "type": "bytes"
        },
        {
          "internalType": "uint256",
          "name": "timestamp",
          "type": "uint256"
        },
        {
          "internalType": "bool",
          "name": "isActive",
          "type": "bool"
        }
      ],
      "stateMutability": "view",
      "type": "function"
    },
    {
      "inputs": [
        {
          "internalType": "uint256",
          "name": "tokenId",
          "type": "uint256"
        }
      ],
      "name": "getApproved",
      "outputs": [
        {
          "internalType": "address",
          "name": "",
          "type": "address"
        }
      ],
      "stateMutability": "view",
      "type": "function"
    },
    {
      "inputs": [
        {
          "internalType": "uint256",
          "name": "_diplomaId",
          "type": "uint256"
        }
      ],
      "name": "getDiplomaDetails",
      "outputs": [
        {
          "internalType": "address",
          "name": "owner",
          "type": "address"
        },
        {
          "components": [
            {
              "internalType": "bytes32",
              "name": "documentHash",
              "type": "bytes32"
            },
            {
              "internalType": "string",
              "name": "cid",
              "type": "string"
            },
            {
              "internalType": "address",
              "name": "issuer",
              "type": "address"
            },
            {
              "internalType": "bytes",
              "name": "signature",
              "type": "bytes"
            },
            {
              "internalType": "uint256",
              "name": "timestamp",
              "type": "uint256"
            },
            {
              "internalType": "bool",
              "name": "isActive",
              "type": "bool"
            }
          ],
          "internalType": "struct IjazahNFT.Diploma",
          "name": "diploma",
          "type": "tuple"
        }
      ],
      "stateMutability": "view",
      "type": "function"
    },
    {
      "inputs": [
        {
          "internalType": "uint256",
          "name": "_diplomaId",
          "type": "uint256"
        }
      ],
      "name": "getDiplomaMetadata",
      "outputs": [
        {
          "internalType": "string",
          "name": "studentName",
          "type": "string"
        },
        {
          "internalType": "string",
          "name": "nim",
          "type": "string"
        }
      ],
      "stateMutability": "view",
      "type": "function"
    },
    {
      "inputs": [
        {
          "internalType": "bytes32",
          "name": "role",
          "type": "bytes32"
        }
      ],
      "name": "getRoleAdmin",
      "outputs": [
        {
          "internalType": "bytes32",
          "name": "",
          "type": "bytes32"
        }
      ],
      "stateMutability": "view",
      "type": "function"
    },
    {
      "inputs": [],
      "name": "getTotalDiplomas",
      "outputs": [
        {
          "internalType": "uint256",
          "name": "",
          "type": "uint256"
        }
      ],
      "stateMutability": "view",
      "type": "function"
    },
    {
      "inputs": [
        {
          "internalType": "bytes32",
          "name": "role",
          "type": "bytes32"
        },
        {
          "internalType": "address",
          "name": "account",
          "type": "address"
        }
      ],
      "name": "grantRole",
      "outputs": [],
      "stateMutability": "nonpayable",
      "type": "function"
    },
    {
      "inputs": [
        {
          "internalType": "bytes32",
          "name": "role",
          "type": "bytes32"
        },
        {
          "internalType": "address",
          "name": "account",
          "type": "address"
        }
      ],
      "name": "hasRole",
      "outputs": [
        {
          "internalType": "bool",
          "name": "",
          "type": "bool"
        }
      ],
      "stateMutability": "view",
      "type": "function"
    },
    {
      "inputs": [
        {
          "internalType": "address",
          "name": "owner",
          "type": "address"
        },
        {
          "internalType": "address",
          "name": "operator",
          "type": "address"
        }
      ],
      "name": "isApprovedForAll",
      "outputs": [
        {
          "internalType": "bool",
          "name": "",
          "type": "bool"
        }
      ],
      "stateMutability": "view",
      "type": "function"
    },
    {
      "inputs": [
        {
          "internalType": "address",
          "name": "_address",
          "type": "address"
        }
      ],
      "name": "isIssuer",
      "outputs": [
        {
          "internalType": "bool",
          "name": "",
          "type": "bool"
        }
      ],
      "stateMutability": "view",
      "type": "function"
    },
    {
      "inputs": [
        {
          "internalType": "address",
          "name": "_recipient",
          "type": "address"
        },
        {
          "internalType": "bytes32",
          "name": "_documentHash",
          "type": "bytes32"
        },
        {
          "internalType": "string",
          "name": "_cid",
          "type": "string"
        },
        {
          "internalType": "bytes",
          "name": "_signature",
          "type": "bytes"
        },
        {
          "internalType": "string",
          "name": "_studentName",
          "type": "string"
        },
        {
          "internalType": "string",
          "name": "_nim",
          "type": "string"
        }
      ],
      "name": "issueDiploma",
      "outputs": [
        {
          "internalType": "uint256",
          "name": "",
          "type": "uint256"
        }
      ],
      "stateMutability": "nonpayable",
      "type": "function"
    },
    {
      "inputs": [],
      "name": "name",
      "outputs": [
        {
          "internalType": "string",
          "name": "",
          "type": "string"
        }
      ],
      "stateMutability": "view",
      "type": "function"
    },
    {
      "inputs": [
        {
          "internalType": "uint256",
          "name": "tokenId",
          "type": "uint256"
        }
      ],
      "name": "ownerOf",
      "outputs": [
        {
          "internalType": "address",
          "name": "",
          "type": "address"
        }
      ],
      "stateMutability": "view",
      "type": "function"
    },
    {
      "inputs": [
        {
          "internalType": "address",
          "name": "_issuer",
          "type": "address"
        }
      ],
      "name": "removeIssuer",
      "outputs": [],
      "stateMutability": "nonpayable",
      "type": "function"
    },
    {
      "inputs": [
        {
          "internalType": "bytes32",
          "name": "role",
          "type": "bytes32"
        },
        {
          "internalType": "address",
          "name": "callerConfirmation",
          "type": "address"
        }
      ],
      "name": "renounceRole",
      "outputs": [],
      "stateMutability": "nonpayable",
      "type": "function"
    },
    {
      "inputs": [
        {
          "internalType": "uint256",
          "name": "",
          "type": "uint256"
        }
      ],
      "name": "revocationReasons",
      "outputs": [
        {
          "internalType": "string",
          "name": "",
          "type": "string"
        }
      ],
      "stateMutability": "view",
      "type": "function"
    },
    {
      "inputs": [
        {
          "internalType": "uint256",
          "name": "_diplomaId",
          "type": "uint256"
        },
        {
          "internalType": "string",
          "name": "_reason",
          "type": "string"
        }
      ],
      "name": "revokeDiploma",
      "outputs": [],
      "stateMutability": "nonpayable",
      "type": "function"
    },
    {
      "inputs": [
        {
          "internalType": "bytes32",
          "name": "role",
          "type": "bytes32"
        },
        {
          "internalType": "address",
          "name": "account",
          "type": "address"
        }
      ],
      "name": "revokeRole",
      "outputs": [],
      "stateMutability": "nonpayable",
      "type": "function"
    },
    {
      "inputs": [
        {
          "internalType": "address",
          "name": "from",
          "type": "address"
        },
        {
          "internalType": "address",
          "name": "to",
          "type": "address"
        },
        {
          "internalType": "uint256",
          "name": "tokenId",
          "type": "uint256"
        }
      ],
      "name": "safeTransferFrom",
      "outputs": [],
      "stateMutability": "nonpayable",
      "type": "function"
    },
    {
      "inputs": [
        {
          "internalType": "address",
          "name": "from",
          "type": "address"
        },
        {
          "internalType": "address",
          "name": "to",
          "type": "address"
        },
        {
          "internalType": "uint256",
          "name": "tokenId",
          "type": "uint256"
        },
        {
          "internalType": "bytes",
          "name": "data",
          "type": "bytes"
        }
      ],
      "name": "safeTransferFrom",
      "outputs": [],
      "stateMutability": "nonpayable",
      "type": "function"
    },
    {
      "inputs": [
        {
          "internalType": "address",
          "name": "operator",
          "type": "address"
        },
        {
          "internalType": "bool",
          "name": "approved",
          "type": "bool"
        }
      ],
      "name": "setApprovalForAll",
      "outputs": [],
      "stateMutability": "nonpayable",
      "type": "function"
    },
    {
      "inputs": [
        {
          "internalType": "bytes4",
          "name": "interfaceId",
          "type": "bytes4"
        }
      ],
      "name": "supportsInterface",
      "outputs": [
        {
          "internalType": "bool",
          "name": "",
          "type": "bool"
        }
      ],
      "stateMutability": "view",
      "type": "function"
    },
    {
      "inputs": [],
      "name": "symbol",
      "outputs": [
        {
          "internalType": "string",
          "name": "",
          "type": "string"
        }
      ],
      "stateMutability": "view",
      "type": "function"
    },
    {
      "inputs": [
        {
          "internalType": "uint256",
          "name": "tokenId",
          "type": "uint256"
        }
      ],
      "name": "tokenURI",
      "outputs": [
        {
          "internalType": "string",
          "name": "",
          "type": "string"
        }
      ],
      "stateMutability": "view",
      "type": "function"
    },
    {
      "inputs": [
        {
          "internalType": "address",
          "name": "from",
          "type": "address"
        },
        {
          "internalType": "address",
          "name": "to",
          "type": "address"
        },
        {
          "internalType": "uint256",
          "name": "tokenId",
          "type": "uint256"
        }
      ],
      "name": "transferFrom",
      "outputs": [],
      "stateMutability": "nonpayable",
      "type": "function"
    },
    {
      "inputs": [
        {
          "internalType": "uint256",
          "name": "_diplomaId",
          "type": "uint256"
        }
      ],
      "name": "verifyDiploma",
      "outputs": [
        {
          "internalType": "bool",
          "name": "isValid",
          "type": "bool"
        },
        {
          "internalType": "bool",
          "name": "isActive",
          "type": "bool"
        }
      ],
      "stateMutability": "view",
      "type": "function"
    },
    {
      "inputs": [
        {
          "internalType": "uint256",
          "name": "_diplomaId",
          "type": "uint256"
        },
        {
          "internalType": "bytes32",
          "name": "_documentHash",
          "type": "bytes32"
        }
      ],
      "name": "verifyHash",
      "outputs": [
        {
          "internalType": "bool",
          "name": "",
          "type": "bool"
        }
      ],
      "stateMutability": "view",
      "type": "function"
    }
  ],
  "bytecode": "0x60806040523480156200001157600080fd5b506040516200280c3803806200280c833981016040819052620000349162000194565b6040518060400160405280600e81526020016d125a985e985a08111a59da5d185b60921b815250604051806040016040528060068152602001650929482b482960d31b81525081600090816200008b91906200026b565b5060016200009a82826200026b565b50620000ac91506000905082620000e1565b50620000d97f114e74f6ea3bd819998f78687bfcb11b140da08e9b7d222fa9c1f1ba1f2aa12282620000e1565b505062000337565b60008281526007602090815260408083206001600160a01b038516845290915281205460ff166200018a5760008381526007602090815260408083206001600160a01b03861684529091529020805460ff19166001179055620001413390565b6001600160a01b0316826001600160a01b0316847f2f8788117e7eff1d82e926ec794901d17c78024a50270940304540a733656f0d60405160405180910390a45060016200018e565b5060005b92915050565b600060208284031215620001a757600080fd5b81516001600160a01b0381168114620001bf57600080fd5b9392505050565b634e487b7160e01b600052604160045260246000fd5b600181811c90821680620001f157607f821691505b6020821081036200021257634e487b7160e01b600052602260045260246000fd5b50919050565b601f8211156200026657600081815260208120601f850160051c81016020861015620002415750805b601f850160051c820191505b8181101562000262578281556001016200024d565b5050505b505050565b81516001600160401b03811115620002875762000287620001c6565b6200029f81620002988454620001dc565b8462000218565b602080601f831160018114620002d75760008415620002be5750858301515b600019600386901b1c1916600185901b17855562000262565b600085815260208120601f198616915b828110156200030857888601518255948401946001909101908401620002e7565b5085821015620003275787850151600019600388901b60f8161c191681555b5050505050600190811b01905550565b6124c580620003476000396000f3fe608060405234801561001057600080fd5b50600436106101fb5760003560e01c806347bc70931161011a578063a217fddf116100ad578063c87b56dd1161007c578063c87b56dd14610489578063d547741f1461049c578063d57a3c07146104af578063e985e9c5146104c2578063ec06d73b146104d557600080fd5b8063a217fddf14610448578063a22cb46514610450578063aa621c8914610463578063b88d4fde1461047657600080fd5b806382aefa24116100e957806382aefa2414610405578063877b9a671461041a57806391d148541461042d57806395d89b411461044057600080fd5b806347bc7093146103c45780636236f3b6146103d75780636352211e146103df57806370a08231146103f257600080fd5b8063248a9ca31161019257806335dfc1c31161016157806335dfc1c31461034f57806336568abe1461037457806342842e0e1461038757806342df8ec71461039a57600080fd5b8063248a9ca3146102e557806328571feb146103085780632c88796c1461031b5780632f2ff15d1461033c57600080fd5b806310359f37116101ce57806310359f371461027d5780631acaa75f1461029e57806320694db0146102bf57806323b872dd146102d257600080fd5b806301ffc9a71461020057806306fdde0314610228578063081812fc1461023d578063095ea7b314610268575b600080fd5b61021361020e366004611cd2565b6104e8565b60405190151581526020015b60405180910390f35b6102306104f9565b60405161021f9190611d3f565b61025061024b366004611d52565b61058b565b6040516001600160a01b03909116815260200161021f565b61027b610276366004611d87565b6105b4565b005b61029061028b366004611d52565b6105c3565b60405161021f929190611db1565b6102b16102ac366004611ed8565b6107c3565b60405190815260200161021f565b61027b6102cd366004611f9e565b610967565b61027b6102e0366004611fb9565b61098f565b6102b16102f3366004611d52565b60009081526007602052604090206001015490565b610230610316366004611d52565b610a1a565b61032e610329366004611d52565b610ab4565b60405161021f929190611ff5565b61027b61034a366004612023565b610c38565b61036261035d366004611d52565b610c5d565b60405161021f9695949392919061204f565b61027b610382366004612023565b610db5565b61027b610395366004611fb9565b610de8565b6103ad6103a8366004611d52565b610e03565b60408051921515835290151560208301520161021f565b61027b6103d2366004611f9e565b610e45565b6008546102b1565b6102506103ed366004611d52565b610e68565b6102b1610400366004611f9e565b610e73565b6102b160008051602061247083398151915281565b610213610428366004611f9e565b610ebb565b61021361043b366004612023565b610ed1565b610230610efc565b6102b1600081565b61027b61045e3660046120a4565b610f0b565b61032e610471366004611d52565b610f16565b61027b6104843660046120e0565b611042565b610230610497366004611d52565b61105a565b61027b6104aa366004612023565b611065565b61027b6104bd366004612148565b61108a565b6102136104d036600461218f565b6111ab565b6102136104e33660046121b9565b6111d9565b60006104f382611220565b92915050565b606060008054610508906121db565b80601f0160208091040260200160405190810160405280929190818152602001828054610534906121db565b80156105815780601f1061055657610100808354040283529160200191610581565b820191906000526020600020905b81548152906001019060200180831161056457829003601f168201915b5050505050905090565b600061059682611245565b506000828152600460205260409020546001600160a01b03166104f3565b6105bf82823361127d565b5050565b6040805160c0810182526000808252606060208301819052928201819052828201929092526080810182905260a0810182905260006106018461128a565b6001600160a01b0316036106305760405162461bcd60e51b815260040161062790612215565b60405180910390fd5b61063983610e68565b60096000858152602001908152602001600020806040518060c001604052908160008201548152602001600182018054610672906121db565b80601f016020809104026020016040519081016040528092919081815260200182805461069e906121db565b80156106eb5780601f106106c0576101008083540402835291602001916106eb565b820191906000526020600020905b8154815290600101906020018083116106ce57829003601f168201915b505050918352505060028201546001600160a01b0316602082015260038201805460409092019161071b906121db565b80601f0160208091040260200160405190810160405280929190818152602001828054610747906121db565b80156107945780601f1061076957610100808354040283529160200191610794565b820191906000526020600020905b81548152906001019060200180831161077757829003601f168201915b50505091835250506004820154602082015260059091015460ff16151560409091015291959194509092505050565b60006000805160206124708339815191526107dd816112a5565b60088054600091826107ee83612245565b9190505590506107fe89826112b2565b61080881886112cc565b6040805160c08101825289815260208082018a81523383850152606083018a9052426080840152600160a084018190526000868152600990935293909120825181559051919290919082019061085e90826122b2565b5060408201516002820180546001600160a01b0319166001600160a01b039092169190911790556060820151600382019061089990826122b2565b506080820151600482015560a0909101516005909101805460ff191691151591909117905560408051808201825286815260208082018790526000848152600a90915291909120815181906108ee90826122b2565b506020820151600182019061090390826122b2565b50905050336001600160a01b0316896001600160a01b0316827fa5a8413efbe8add30858b352f70bc2ea4d9a7af41a7d62fa7000bc52b1473e0d8b8b8a8a42604051610953959493929190612372565b60405180910390a498975050505050505050565b6000610972816112a5565b61098a6000805160206124708339815191528361131c565b505050565b6001600160a01b0382166109b957604051633250574960e11b815260006004820152602401610627565b60006109c68383336113b0565b9050836001600160a01b0316816001600160a01b031614610a14576040516364283d7b60e01b81526001600160a01b0380861660048301526024820184905282166044820152606401610627565b50505050565b600b6020526000908152604090208054610a33906121db565b80601f0160208091040260200160405190810160405280929190818152602001828054610a5f906121db565b8015610aac5780601f10610a8157610100808354040283529160200191610aac565b820191906000526020600020905b815481529060010190602001808311610a8f57829003601f168201915b505050505081565b6060806000610ac28461128a565b6001600160a01b031603610ae85760405162461bcd60e51b815260040161062790612215565b6000838152600a60205260408082208151808301909252805482908290610b0e906121db565b80601f0160208091040260200160405190810160405280929190818152602001828054610b3a906121db565b8015610b875780601f10610b5c57610100808354040283529160200191610b87565b820191906000526020600020905b815481529060010190602001808311610b6a57829003601f168201915b50505050508152602001600182018054610ba0906121db565b80601f0160208091040260200160405190810160405280929190818152602001828054610bcc906121db565b8015610c195780601f10610bee57610100808354040283529160200191610c19565b820191906000526020600020905b815481529060010190602001808311610bfc57829003601f168201915b5050505050815250509050806000015181602001519250925050915091565b600082815260076020526040902060010154610c53816112a5565b610a14838361131c565b60096020526000908152604090208054600182018054919291610c7f906121db565b80601f0160208091040260200160405190810160405280929190818152602001828054610cab906121db565b8015610cf85780601f10610ccd57610100808354040283529160200191610cf8565b820191906000526020600020905b815481529060010190602001808311610cdb57829003601f168201915b505050600284015460038501805494956001600160a01b03909216949193509150610d22906121db565b80601f0160208091040260200160405190810160405280929190818152602001828054610d4e906121db565b8015610d9b5780601f10610d7057610100808354040283529160200191610d9b565b820191906000526020600020905b815481529060010190602001808311610d7e57829003601f168201915b50505050600483015460059093015491929160ff16905086565b6001600160a01b0381163314610dde5760405163334bd91960e11b815260040160405180910390fd5b61098a82826114a4565b61098a83838360405180602001604052806000815250611042565b60008080610e108461128a565b6001600160a01b03161480159250610e3d575060008281526009602052604090206005015460ff16915091565b506000915091565b6000610e50816112a5565b61098a600080516020612470833981519152836114a4565b60006104f382611245565b60006001600160a01b038216610e9f576040516322718ad960e21b815260006004820152602401610627565b506001600160a01b031660009081526003602052604090205490565b60006104f3600080516020612470833981519152835b60009182526007602090815260408084206001600160a01b0393909316845291905290205460ff1690565b606060018054610508906121db565b6105bf338383611511565b600a60205260009081526040902080548190610f31906121db565b80601f0160208091040260200160405190810160405280929190818152602001828054610f5d906121db565b8015610faa5780601f10610f7f57610100808354040283529160200191610faa565b820191906000526020600020905b815481529060010190602001808311610f8d57829003601f168201915b505050505090806001018054610fbf906121db565b80601f0160208091040260200160405190810160405280929190818152602001828054610feb906121db565b80156110385780601f1061100d57610100808354040283529160200191611038565b820191906000526020600020905b81548152906001019060200180831161101b57829003601f168201915b5050505050905082565b61104d84848461098f565b610a1433858585856115a8565b60606104f3826116d3565b600082815260076020526040902060010154611080816112a5565b610a1483836114a4565b6000805160206124708339815191526110a2816112a5565b60006110ad8461128a565b6001600160a01b0316036110d35760405162461bcd60e51b815260040161062790612215565b60008381526009602052604090206005015460ff166111345760405162461bcd60e51b815260206004820152601760248201527f4469706c6f6d6120616c7265616479207265766f6b65640000000000000000006044820152606401610627565b6000838152600960209081526040808320600501805460ff19169055600b909152902061116183826122b2565b50336001600160a01b0316837f2e0fcfa3787174875549a3b636786e687846a6694381dd255df177006a1f7187844260405161119e9291906123c4565b60405180910390a3505050565b6001600160a01b03918216600090815260056020908152604080832093909416825291909152205460ff1690565b6000806111e58461128a565b6001600160a01b03160361120b5760405162461bcd60e51b815260040161062790612215565b50600091825260096020526040909120541490565b60006001600160e01b03198216637965db0b60e01b14806104f357506104f3826117e4565b6000806112518361128a565b90506001600160a01b0381166104f357604051637e27328960e01b815260048101849052602401610627565b61098a8383836001611809565b6000908152600260205260409020546001600160a01b031690565b6112af813361190f565b50565b6105bf828260405180602001604052806000815250611948565b60008281526006602052604090206112e482826122b2565b506040518281527ff8e1a15aba9398e019f0b49df1a4fde98ee17ae345cb5f6b5e2c27f5033e8ce79060200160405180910390a15050565b60006113288383610ed1565b6113a85760008381526007602090815260408083206001600160a01b03861684529091529020805460ff191660011790556113603390565b6001600160a01b0316826001600160a01b0316847f2f8788117e7eff1d82e926ec794901d17c78024a50270940304540a733656f0d60405160405180910390a45060016104f3565b5060006104f3565b6000806113bc8461128a565b90506001600160a01b038316156113d8576113d8818486611960565b6001600160a01b03811615611416576113f5600085600080611809565b6001600160a01b038116600090815260036020526040902080546000190190555b6001600160a01b03851615611445576001600160a01b0385166000908152600360205260409020805460010190555b60008481526002602052604080822080546001600160a01b0319166001600160a01b0389811691821790925591518793918516917fddf252ad1be2c89b69c2b068fc378daa952ba7f163c4a11628f55a4df523b3ef91a4949350505050565b60006114b08383610ed1565b156113a85760008381526007602090815260408083206001600160a01b0386168085529252808320805460ff1916905551339286917ff6391f5c32d9c69d2a47ea670b442974b53935d1edc7fd64eb21e047a839171b9190a45060016104f3565b6001600160a01b03821661154357604051630b61174360e31b81526001600160a01b0383166004820152602401610627565b6001600160a01b03838116600081815260056020908152604080832094871680845294825291829020805460ff191686151590811790915591519182527f17307eab39ab6107e8899845ad3d59bd9653f200f220920489ca2b5937696c31910161119e565b6001600160a01b0383163b156116cc57604051630a85bd0160e11b81526001600160a01b0384169063150b7a02906115ea9088908890879087906004016123e6565b6020604051808303816000875af1925050508015611625575060408051601f3d908101601f1916820190925261162291810190612423565b60015b61168e573d808015611653576040519150601f19603f3d011682016040523d82523d6000602084013e611658565b606091505b50805160000361168657604051633250574960e11b81526001600160a01b0385166004820152602401610627565b805160208201fd5b6001600160e01b03198116630a85bd0160e11b146116ca57604051633250574960e11b81526001600160a01b0385166004820152602401610627565b505b5050505050565b60606116de82611245565b50600082815260066020526040812080546116f8906121db565b80601f0160208091040260200160405190810160405280929190818152602001828054611724906121db565b80156117715780601f1061174657610100808354040283529160200191611771565b820191906000526020600020905b81548152906001019060200180831161175457829003601f168201915b50505050509050600061178f60408051602081019091526000815290565b905080516000036117a1575092915050565b8151156117d35780826040516020016117bb929190612440565b60405160208183030381529060405292505050919050565b6117dc846119c4565b949350505050565b60006001600160e01b03198216632483248360e11b14806104f357506104f382611a39565b808061181d57506001600160a01b03821615155b156118df57600061182d84611245565b90506001600160a01b038316158015906118595750826001600160a01b0316816001600160a01b031614155b801561186c575061186a81846111ab565b155b156118955760405163a9fbf51f60e01b81526001600160a01b0384166004820152602401610627565b81156118dd5783856001600160a01b0316826001600160a01b03167f8c5be1e5ebec7d5bd14f71427d1e84f3dd0314c0f7b2291e5b200ac8c7c3b92560405160405180910390a45b505b5050600090815260046020526040902080546001600160a01b0319166001600160a01b0392909216919091179055565b6119198282610ed1565b6105bf5760405163e2517d3f60e01b81526001600160a01b038216600482015260248101839052604401610627565b6119528383611a89565b61098a3360008585856115a8565b61196b838383611aee565b61098a576001600160a01b03831661199957604051637e27328960e01b815260048101829052602401610627565b60405163177e802f60e01b81526001600160a01b038316600482015260248101829052604401610627565b60606119cf82611245565b5060006119e760408051602081019091526000815290565b90506000815111611a075760405180602001604052806000815250611a32565b80611a1184611b51565b604051602001611a22929190612440565b6040516020818303038152906040525b9392505050565b60006001600160e01b031982166380ac58cd60e01b1480611a6a57506001600160e01b03198216635b5e139f60e01b145b806104f357506301ffc9a760e01b6001600160e01b03198316146104f3565b6001600160a01b038216611ab357604051633250574960e11b815260006004820152602401610627565b6000611ac1838360006113b0565b90506001600160a01b0381161561098a576040516339e3563760e11b815260006004820152602401610627565b60006001600160a01b038316158015906117dc5750826001600160a01b0316846001600160a01b03161480611b285750611b2884846111ab565b806117dc5750506000908152600460205260409020546001600160a01b03908116911614919050565b60606000611b5e83611be4565b600101905060008167ffffffffffffffff811115611b7e57611b7e611e35565b6040519080825280601f01601f191660200182016040528015611ba8576020820181803683370190505b5090508181016020015b600019016f181899199a1a9b1b9c1cb0b131b232b360811b600a86061a8153600a8504945084611bb257509392505050565b60008072184f03e93ff9f4daa797ed6e38ed64bf6a1f0160401b8310611c235772184f03e93ff9f4daa797ed6e38ed64bf6a1f0160401b830492506040015b6d04ee2d6d415b85acef81000000008310611c4f576d04ee2d6d415b85acef8100000000830492506020015b662386f26fc100008310611c6d57662386f26fc10000830492506010015b6305f5e1008310611c85576305f5e100830492506008015b6127108310611c9957612710830492506004015b60648310611cab576064830492506002015b600a83106104f35760010192915050565b6001600160e01b0319811681146112af57600080fd5b600060208284031215611ce457600080fd5b8135611a3281611cbc565b60005b83811015611d0a578181015183820152602001611cf2565b50506000910152565b60008151808452611d2b816020860160208601611cef565b601f01601f19169290920160200192915050565b602081526000611a326020830184611d13565b600060208284031215611d6457600080fd5b5035919050565b80356001600160a01b0381168114611d8257600080fd5b919050565b60008060408385031215611d9a57600080fd5b611da383611d6b565b946020939093013593505050565b600060018060a01b0380851683526040602084015283516040840152602084015160c06060850152611de7610100850182611d13565b60408601519092166080850152506060840151838203603f190160a085015290611e118183611d13565b915050608084015160c084015260a0840151151560e0840152809150509392505050565b634e487b7160e01b600052604160045260246000fd5b600082601f830112611e5c57600080fd5b813567ffffffffffffffff80821115611e7757611e77611e35565b604051601f8301601f19908116603f01168101908282118183101715611e9f57611e9f611e35565b81604052838152866020858801011115611eb857600080fd5b836020870160208301376000602085830101528094505050505092915050565b60008060008060008060c08789031215611ef157600080fd5b611efa87611d6b565b955060208701359450604087013567ffffffffffffffff80821115611f1e57600080fd5b611f2a8a838b01611e4b565b95506060890135915080821115611f4057600080fd5b611f4c8a838b01611e4b565b94506080890135915080821115611f6257600080fd5b611f6e8a838b01611e4b565b935060a0890135915080821115611f8457600080fd5b50611f9189828a01611e4b565b9150509295509295509295565b600060208284031215611fb057600080fd5b611a3282611d6b565b600080600060608486031215611fce57600080fd5b611fd784611d6b565b9250611fe560208501611d6b565b9150604084013590509250925092565b6040815260006120086040830185611d13565b828103602084015261201a8185611d13565b95945050505050565b6000806040838503121561203657600080fd5b8235915061204660208401611d6b565b90509250929050565b86815260c06020820152600061206860c0830188611d13565b6001600160a01b038716604084015282810360608401526120898187611d13565b6080840195909552505090151560a090910152949350505050565b600080604083850312156120b757600080fd5b6120c083611d6b565b9150602083013580151581146120d557600080fd5b809150509250929050565b600080600080608085870312156120f657600080fd5b6120ff85611d6b565b935061210d60208601611d6b565b925060408501359150606085013567ffffffffffffffff81111561213057600080fd5b61213c87828801611e4b565b91505092959194509250565b6000806040838503121561215b57600080fd5b82359150602083013567ffffffffffffffff81111561217957600080fd5b61218585828601611e4b565b9150509250929050565b600080604083850312156121a257600080fd5b6121ab83611d6b565b915061204660208401611d6b565b600080604083850312156121cc57600080fd5b50508035926020909101359150565b600181811c908216806121ef57607f821691505b60208210810361220f57634e487b7160e01b600052602260045260246000fd5b50919050565b602080825260169082015275111a5c1b1bdb5848191bd95cc81b9bdd08195e1a5cdd60521b604082015260600190565b60006001820161226557634e487b7160e01b600052601160045260246000fd5b5060010190565b601f82111561098a57600081815260208120601f850160051c810160208610156122935750805b601f850160051c820191505b818110156116ca5782815560010161229f565b815167ffffffffffffffff8111156122cc576122cc611e35565b6122e0816122da84546121db565b8461226c565b602080601f83116001811461231557600084156122fd5750858301515b600019600386901b1c1916600185901b1785556116ca565b600085815260208120601f198616915b8281101561234457888601518255948401946001909101908401612325565b50858210156123625787850151600019600388901b60f8161c191681555b5050505050600190811b01905550565b85815260a06020820152600061238b60a0830187611d13565b828103604084015261239d8187611d13565b905082810360608401526123b18186611d13565b9150508260808301529695505050505050565b6040815260006123d76040830185611d13565b90508260208301529392505050565b6001600160a01b038581168252841660208201526040810183905260806060820181905260009061241990830184611d13565b9695505050505050565b60006020828403121561243557600080fd5b8151611a3281611cbc565b60008351612452818460208801611cef565b835190830190612466818360208801611cef565b0194935050505056fe114e74f6ea3bd819998f78687bfcb11b140da08e9b7d222fa9c1f1ba1f2aa122a2646970667358221220141cef2f4a049f5d329e440ee82b6ef144053dfd56ccbbcee263a91b4383e83364736f6c63430008140033",
  "linkReferences": {},
  "deployedLinkReferences": {}
}